{
  "_format": "hh-sol-artifact-1",
  "contractName": "ArkaniaSplitter",
  "sourceName": "contracts/arkaniaSplitter.sol",
  "abi": [
    {
      "inputs": [
        {
          "internalType": "address[]",
          "name": "_payees",
          "type": "address[]"
        },
        {
          "internalType": "uint256[]",
          "name": "_shares",
          "type": "uint256[]"
        }
      ],
      "stateMutability": "payable",
      "type": "constructor"
    },
    {
      "anonymous": false,
      "inputs": [
        {
          "indexed": true,
          "internalType": "contract IERC20",
          "name": "token",
          "type": "address"
        },
        {
          "indexed": false,
          "internalType": "address",
          "name": "to",
          "type": "address"
        },
        {
          "indexed": false,
          "internalType": "uint256",
          "name": "amount",
          "type": "uint256"
        }
      ],
      "name": "ERC20PaymentReleased",
      "type": "event"
    },
    {
      "anonymous": false,
      "inputs": [
        {
          "indexed": false,
          "internalType": "address",
          "name": "account",
          "type": "address"
        },
        {
          "indexed": false,
          "internalType": "uint256",
          "name": "shares",
          "type": "uint256"
        }
      ],
      "name": "PayeeAdded",
      "type": "event"
    },
    {
      "anonymous": false,
      "inputs": [
        {
          "indexed": false,
          "internalType": "address",
          "name": "from",
          "type": "address"
        },
        {
          "indexed": false,
          "internalType": "uint256",
          "name": "amount",
          "type": "uint256"
        }
      ],
      "name": "PaymentReceived",
      "type": "event"
    },
    {
      "anonymous": false,
      "inputs": [
        {
          "indexed": false,
          "internalType": "address",
          "name": "to",
          "type": "address"
        },
        {
          "indexed": false,
          "internalType": "uint256",
          "name": "amount",
          "type": "uint256"
        }
      ],
      "name": "PaymentReleased",
      "type": "event"
    },
    {
      "inputs": [
        {
          "internalType": "uint256",
          "name": "index",
          "type": "uint256"
        }
      ],
      "name": "payee",
      "outputs": [
        {
          "internalType": "address",
          "name": "",
          "type": "address"
        }
      ],
      "stateMutability": "view",
      "type": "function"
    },
    {
      "inputs": [
        {
          "internalType": "address payable",
          "name": "account",
          "type": "address"
        }
      ],
      "name": "release",
      "outputs": [],
      "stateMutability": "nonpayable",
      "type": "function"
    },
    {
      "inputs": [
        {
          "internalType": "contract IERC20",
          "name": "token",
          "type": "address"
        },
        {
          "internalType": "address",
          "name": "account",
          "type": "address"
        }
      ],
      "name": "release",
      "outputs": [],
      "stateMutability": "nonpayable",
      "type": "function"
    },
    {
      "inputs": [
        {
          "internalType": "contract IERC20",
          "name": "token",
          "type": "address"
        },
        {
          "internalType": "address",
          "name": "account",
          "type": "address"
        }
      ],
      "name": "released",
      "outputs": [
        {
          "internalType": "uint256",
          "name": "",
          "type": "uint256"
        }
      ],
      "stateMutability": "view",
      "type": "function"
    },
    {
      "inputs": [
        {
          "internalType": "address",
          "name": "account",
          "type": "address"
        }
      ],
      "name": "released",
      "outputs": [
        {
          "internalType": "uint256",
          "name": "",
          "type": "uint256"
        }
      ],
      "stateMutability": "view",
      "type": "function"
    },
    {
      "inputs": [
        {
          "internalType": "address",
          "name": "account",
          "type": "address"
        }
      ],
      "name": "shares",
      "outputs": [
        {
          "internalType": "uint256",
          "name": "",
          "type": "uint256"
        }
      ],
      "stateMutability": "view",
      "type": "function"
    },
    {
      "inputs": [
        {
          "internalType": "contract IERC20",
          "name": "token",
          "type": "address"
        }
      ],
      "name": "totalReleased",
      "outputs": [
        {
          "internalType": "uint256",
          "name": "",
          "type": "uint256"
        }
      ],
      "stateMutability": "view",
      "type": "function"
    },
    {
      "inputs": [],
      "name": "totalReleased",
      "outputs": [
        {
          "internalType": "uint256",
          "name": "",
          "type": "uint256"
        }
      ],
      "stateMutability": "view",
      "type": "function"
    },
    {
      "inputs": [],
      "name": "totalShares",
      "outputs": [
        {
          "internalType": "uint256",
          "name": "",
          "type": "uint256"
        }
      ],
      "stateMutability": "view",
      "type": "function"
    },
    {
      "stateMutability": "payable",
      "type": "receive"
    }
  ],
  "bytecode": "0x60806040526040516200229a3803806200229a833981810160405281019062000029919062000527565b8181805182511462000072576040517f08c379a00000000000000000000000000000000000000000000000000000000081526004016200006990620006ce565b60405180910390fd5b6000825111620000b9576040517f08c379a0000000000000000000000000000000000000000000000000000000008152600401620000b09062000712565b60405180910390fd5b60005b825181101562000170576200015a83828151811062000104577f4e487b7100000000000000000000000000000000000000000000000000000000600052603260045260246000fd5b602002602001015183838151811062000146577f4e487b7100000000000000000000000000000000000000000000000000000000600052603260045260246000fd5b60200260200101516200017b60201b60201c565b80806200016790620008bf565b915050620000bc565b505050505062000aef565b600073ffffffffffffffffffffffffffffffffffffffff168273ffffffffffffffffffffffffffffffffffffffff161415620001ee576040517f08c379a0000000000000000000000000000000000000000000000000000000008152600401620001e590620006ac565b60405180910390fd5b6000811162000234576040517f08c379a00000000000000000000000000000000000000000000000000000000081526004016200022b9062000734565b60405180910390fd5b6000600260008473ffffffffffffffffffffffffffffffffffffffff1673ffffffffffffffffffffffffffffffffffffffff1681526020019081526020016000205414620002b9576040517f08c379a0000000000000000000000000000000000000000000000000000000008152600401620002b090620006f0565b60405180910390fd5b6004829080600181540180825580915050600190039060005260206000200160009091909190916101000a81548173ffffffffffffffffffffffffffffffffffffffff021916908373ffffffffffffffffffffffffffffffffffffffff16021790555080600260008473ffffffffffffffffffffffffffffffffffffffff1673ffffffffffffffffffffffffffffffffffffffff1681526020019081526020016000208190555080600054620003709190620007ee565b6000819055507f40c340f65e17194d14ddddb073d3c9f888e3cb52b5aae0c6c7706b4fbc905fac8282604051620003a99291906200067f565b60405180910390a15050565b6000620003cc620003c6846200077f565b62000756565b90508083825260208201905082856020860282011115620003ec57600080fd5b60005b858110156200042057816200040588826200049f565b845260208401935060208301925050600181019050620003ef565b5050509392505050565b6000620004416200043b84620007ae565b62000756565b905080838252602082019050828560208602820111156200046157600080fd5b60005b858110156200049557816200047a888262000510565b84526020840193506020830192505060018101905062000464565b5050509392505050565b600081519050620004b08162000abb565b92915050565b600082601f830112620004c857600080fd5b8151620004da848260208601620003b5565b91505092915050565b600082601f830112620004f557600080fd5b8151620005078482602086016200042a565b91505092915050565b600081519050620005218162000ad5565b92915050565b600080604083850312156200053b57600080fd5b600083015167ffffffffffffffff8111156200055657600080fd5b6200056485828601620004b6565b925050602083015167ffffffffffffffff8111156200058257600080fd5b6200059085828601620004e3565b9150509250929050565b620005a5816200084b565b82525050565b6000620005ba602c83620007dd565b9150620005c7826200097c565b604082019050919050565b6000620005e1603283620007dd565b9150620005ee82620009cb565b604082019050919050565b600062000608602b83620007dd565b9150620006158262000a1a565b604082019050919050565b60006200062f601a83620007dd565b91506200063c8262000a69565b602082019050919050565b600062000656601d83620007dd565b9150620006638262000a92565b602082019050919050565b62000679816200087f565b82525050565b60006040820190506200069660008301856200059a565b620006a560208301846200066e565b9392505050565b60006020820190508181036000830152620006c781620005ab565b9050919050565b60006020820190508181036000830152620006e981620005d2565b9050919050565b600060208201905081810360008301526200070b81620005f9565b9050919050565b600060208201905081810360008301526200072d8162000620565b9050919050565b600060208201905081810360008301526200074f8162000647565b9050919050565b60006200076262000775565b905062000770828262000889565b919050565b6000604051905090565b600067ffffffffffffffff8211156200079d576200079c6200093c565b5b602082029050602081019050919050565b600067ffffffffffffffff821115620007cc57620007cb6200093c565b5b602082029050602081019050919050565b600082825260208201905092915050565b6000620007fb826200087f565b915062000808836200087f565b9250827fffffffffffffffffffffffffffffffffffffffffffffffffffffffffffffffff0382111562000840576200083f6200090d565b5b828201905092915050565b600062000858826200085f565b9050919050565b600073ffffffffffffffffffffffffffffffffffffffff82169050919050565b6000819050919050565b62000894826200096b565b810181811067ffffffffffffffff82111715620008b657620008b56200093c565b5b80604052505050565b6000620008cc826200087f565b91507fffffffffffffffffffffffffffffffffffffffffffffffffffffffffffffffff8214156200090257620009016200090d565b5b600182019050919050565b7f4e487b7100000000000000000000000000000000000000000000000000000000600052601160045260246000fd5b7f4e487b7100000000000000000000000000000000000000000000000000000000600052604160045260246000fd5b6000601f19601f8301169050919050565b7f5061796d656e7453706c69747465723a206163636f756e74206973207468652060008201527f7a65726f20616464726573730000000000000000000000000000000000000000602082015250565b7f5061796d656e7453706c69747465723a2070617965657320616e64207368617260008201527f6573206c656e677468206d69736d617463680000000000000000000000000000602082015250565b7f5061796d656e7453706c69747465723a206163636f756e7420616c726561647960008201527f2068617320736861726573000000000000000000000000000000000000000000602082015250565b7f5061796d656e7453706c69747465723a206e6f20706179656573000000000000600082015250565b7f5061796d656e7453706c69747465723a20736861726573206172652030000000600082015250565b62000ac6816200084b565b811462000ad257600080fd5b50565b62000ae0816200087f565b811462000aec57600080fd5b50565b61179b8062000aff6000396000f3fe60806040526004361061008a5760003560e01c80638b83209b116100595780638b83209b146101905780639852595c146101cd578063ce7c2ac21461020a578063d79779b214610247578063e33b7de314610284576100d1565b806319165587146100d65780633a98ef39146100ff578063406072a91461012a57806348b7504414610167576100d1565b366100d1577f6ef95f06320e7a25a04a175ca677b7052bdd97131872c2192525a629f51be7706100b86102af565b346040516100c7929190611141565b60405180910390a1005b600080fd5b3480156100e257600080fd5b506100fd60048036038101906100f89190610e19565b6102b7565b005b34801561010b57600080fd5b50610114610462565b604051610121919061126c565b60405180910390f35b34801561013657600080fd5b50610151600480360381019061014c9190610e94565b61046b565b60405161015e919061126c565b60405180910390f35b34801561017357600080fd5b5061018e60048036038101906101899190610e94565b6104f2565b005b34801561019c57600080fd5b506101b760048036038101906101b29190610ed0565b6107ba565b6040516101c491906110fd565b60405180910390f35b3480156101d957600080fd5b506101f460048036038101906101ef9190610df0565b610828565b604051610201919061126c565b60405180910390f35b34801561021657600080fd5b50610231600480360381019061022c9190610df0565b610871565b60405161023e919061126c565b60405180910390f35b34801561025357600080fd5b5061026e60048036038101906102699190610e6b565b6108ba565b60405161027b919061126c565b60405180910390f35b34801561029057600080fd5b50610299610903565b6040516102a6919061126c565b60405180910390f35b600033905090565b6000600260008373ffffffffffffffffffffffffffffffffffffffff1673ffffffffffffffffffffffffffffffffffffffff1681526020019081526020016000205411610339576040517f08c379a00000000000000000000000000000000000000000000000000000000081526004016103309061118c565b60405180910390fd5b6000610343610903565b4761034e91906112b9565b90506000610365838361036086610828565b61090d565b905060008114156103ab576040517f08c379a00000000000000000000000000000000000000000000000000000000081526004016103a29061120c565b60405180910390fd5b80600360008573ffffffffffffffffffffffffffffffffffffffff1673ffffffffffffffffffffffffffffffffffffffff16815260200190815260200160002060008282546103fa91906112b9565b92505081905550806001600082825461041391906112b9565b92505081905550610424838261097b565b7fdf20fd1e76bc69d672e4814fafb2c449bba3a5369d8359adf9e05e6fde87b0568382604051610455929190611118565b60405180910390a1505050565b60008054905090565b6000600660008473ffffffffffffffffffffffffffffffffffffffff1673ffffffffffffffffffffffffffffffffffffffff16815260200190815260200160002060008373ffffffffffffffffffffffffffffffffffffffff1673ffffffffffffffffffffffffffffffffffffffff16815260200190815260200160002054905092915050565b6000600260008373ffffffffffffffffffffffffffffffffffffffff1673ffffffffffffffffffffffffffffffffffffffff1681526020019081526020016000205411610574576040517f08c379a000000000000000000000000000000000000000000000000000000000815260040161056b9061118c565b60405180910390fd5b600061057f836108ba565b8373ffffffffffffffffffffffffffffffffffffffff166370a08231306040518263ffffffff1660e01b81526004016105b891906110fd565b60206040518083038186803b1580156105d057600080fd5b505afa1580156105e4573d6000803e3d6000fd5b505050506040513d601f19601f820116820180604052508101906106089190610ef9565b61061291906112b9565b9050600061062a8383610625878761046b565b61090d565b90506000811415610670576040517f08c379a00000000000000000000000000000000000000000000000000000000081526004016106679061120c565b60405180910390fd5b80600660008673ffffffffffffffffffffffffffffffffffffffff1673ffffffffffffffffffffffffffffffffffffffff16815260200190815260200160002060008573ffffffffffffffffffffffffffffffffffffffff1673ffffffffffffffffffffffffffffffffffffffff16815260200190815260200160002060008282546106fc91906112b9565b9250508190555080600560008673ffffffffffffffffffffffffffffffffffffffff1673ffffffffffffffffffffffffffffffffffffffff168152602001908152602001600020600082825461075291906112b9565b92505081905550610764848483610a6f565b8373ffffffffffffffffffffffffffffffffffffffff167f3be5b7a71e84ed12875d241991c70855ac5817d847039e17a9d895c1ceb0f18a84836040516107ac929190611141565b60405180910390a250505050565b6000600482815481106107f6577f4e487b7100000000000000000000000000000000000000000000000000000000600052603260045260246000fd5b9060005260206000200160009054906101000a900473ffffffffffffffffffffffffffffffffffffffff169050919050565b6000600360008373ffffffffffffffffffffffffffffffffffffffff1673ffffffffffffffffffffffffffffffffffffffff168152602001908152602001600020549050919050565b6000600260008373ffffffffffffffffffffffffffffffffffffffff1673ffffffffffffffffffffffffffffffffffffffff168152602001908152602001600020549050919050565b6000600560008373ffffffffffffffffffffffffffffffffffffffff1673ffffffffffffffffffffffffffffffffffffffff168152602001908152602001600020549050919050565b6000600154905090565b600081600054600260008773ffffffffffffffffffffffffffffffffffffffff1673ffffffffffffffffffffffffffffffffffffffff168152602001908152602001600020548561095e9190611340565b610968919061130f565b610972919061139a565b90509392505050565b804710156109be576040517f08c379a00000000000000000000000000000000000000000000000000000000081526004016109b5906111cc565b60405180910390fd5b60008273ffffffffffffffffffffffffffffffffffffffff16826040516109e4906110e8565b60006040518083038185875af1925050503d8060008114610a21576040519150601f19603f3d011682016040523d82523d6000602084013e610a26565b606091505b5050905080610a6a576040517f08c379a0000000000000000000000000000000000000000000000000000000008152600401610a61906111ac565b60405180910390fd5b505050565b610af08363a9059cbb60e01b8484604051602401610a8e929190611141565b604051602081830303815290604052907bffffffffffffffffffffffffffffffffffffffffffffffffffffffff19166020820180517bffffffffffffffffffffffffffffffffffffffffffffffffffffffff8381831617835250505050610af5565b505050565b6000610b57826040518060400160405280602081526020017f5361666545524332303a206c6f772d6c6576656c2063616c6c206661696c65648152508573ffffffffffffffffffffffffffffffffffffffff16610bbc9092919063ffffffff16565b9050600081511115610bb75780806020019051810190610b779190610e42565b610bb6576040517f08c379a0000000000000000000000000000000000000000000000000000000008152600401610bad9061124c565b60405180910390fd5b5b505050565b6060610bcb8484600085610bd4565b90509392505050565b606082471015610c19576040517f08c379a0000000000000000000000000000000000000000000000000000000008152600401610c10906111ec565b60405180910390fd5b610c2285610ce8565b610c61576040517f08c379a0000000000000000000000000000000000000000000000000000000008152600401610c589061122c565b60405180910390fd5b6000808673ffffffffffffffffffffffffffffffffffffffff168587604051610c8a91906110d1565b60006040518083038185875af1925050503d8060008114610cc7576040519150601f19603f3d011682016040523d82523d6000602084013e610ccc565b606091505b5091509150610cdc828286610d0b565b92505050949350505050565b6000808273ffffffffffffffffffffffffffffffffffffffff163b119050919050565b60608315610d1b57829050610d6b565b600083511115610d2e5782518084602001fd5b816040517f08c379a0000000000000000000000000000000000000000000000000000000008152600401610d62919061116a565b60405180910390fd5b9392505050565b600081359050610d81816116f2565b92915050565b600081359050610d9681611709565b92915050565b600081519050610dab81611720565b92915050565b600081359050610dc081611737565b92915050565b600081359050610dd58161174e565b92915050565b600081519050610dea8161174e565b92915050565b600060208284031215610e0257600080fd5b6000610e1084828501610d72565b91505092915050565b600060208284031215610e2b57600080fd5b6000610e3984828501610d87565b91505092915050565b600060208284031215610e5457600080fd5b6000610e6284828501610d9c565b91505092915050565b600060208284031215610e7d57600080fd5b6000610e8b84828501610db1565b91505092915050565b60008060408385031215610ea757600080fd5b6000610eb585828601610db1565b9250506020610ec685828601610d72565b9150509250929050565b600060208284031215610ee257600080fd5b6000610ef084828501610dc6565b91505092915050565b600060208284031215610f0b57600080fd5b6000610f1984828501610ddb565b91505092915050565b610f2b8161143a565b82525050565b610f3a816113ce565b82525050565b6000610f4b82611287565b610f55818561129d565b9350610f65818560208601611470565b80840191505092915050565b6000610f7c82611292565b610f8681856112a8565b9350610f96818560208601611470565b610f9f81611501565b840191505092915050565b6000610fb76026836112a8565b9150610fc282611512565b604082019050919050565b6000610fda603a836112a8565b9150610fe582611561565b604082019050919050565b6000610ffd601d836112a8565b9150611008826115b0565b602082019050919050565b60006110206026836112a8565b915061102b826115d9565b604082019050919050565b6000611043602b836112a8565b915061104e82611628565b604082019050919050565b600061106660008361129d565b915061107182611677565b600082019050919050565b6000611089601d836112a8565b91506110948261167a565b602082019050919050565b60006110ac602a836112a8565b91506110b7826116a3565b604082019050919050565b6110cb81611430565b82525050565b60006110dd8284610f40565b915081905092915050565b60006110f382611059565b9150819050919050565b60006020820190506111126000830184610f31565b92915050565b600060408201905061112d6000830185610f22565b61113a60208301846110c2565b9392505050565b60006040820190506111566000830185610f31565b61116360208301846110c2565b9392505050565b600060208201905081810360008301526111848184610f71565b905092915050565b600060208201905081810360008301526111a581610faa565b9050919050565b600060208201905081810360008301526111c581610fcd565b9050919050565b600060208201905081810360008301526111e581610ff0565b9050919050565b6000602082019050818103600083015261120581611013565b9050919050565b6000602082019050818103600083015261122581611036565b9050919050565b600060208201905081810360008301526112458161107c565b9050919050565b600060208201905081810360008301526112658161109f565b9050919050565b600060208201905061128160008301846110c2565b92915050565b600081519050919050565b600081519050919050565b600081905092915050565b600082825260208201905092915050565b60006112c482611430565b91506112cf83611430565b9250827fffffffffffffffffffffffffffffffffffffffffffffffffffffffffffffffff03821115611304576113036114a3565b5b828201905092915050565b600061131a82611430565b915061132583611430565b925082611335576113346114d2565b5b828204905092915050565b600061134b82611430565b915061135683611430565b9250817fffffffffffffffffffffffffffffffffffffffffffffffffffffffffffffffff048311821515161561138f5761138e6114a3565b5b828202905092915050565b60006113a582611430565b91506113b083611430565b9250828210156113c3576113c26114a3565b5b828203905092915050565b60006113d982611410565b9050919050565b60006113eb82611410565b9050919050565b60008115159050919050565b6000611409826113ce565b9050919050565b600073ffffffffffffffffffffffffffffffffffffffff82169050919050565b6000819050919050565b60006114458261144c565b9050919050565b60006114578261145e565b9050919050565b600061146982611410565b9050919050565b60005b8381101561148e578082015181840152602081019050611473565b8381111561149d576000848401525b50505050565b7f4e487b7100000000000000000000000000000000000000000000000000000000600052601160045260246000fd5b7f4e487b7100000000000000000000000000000000000000000000000000000000600052601260045260246000fd5b6000601f19601f8301169050919050565b7f5061796d656e7453706c69747465723a206163636f756e7420686173206e6f2060008201527f7368617265730000000000000000000000000000000000000000000000000000602082015250565b7f416464726573733a20756e61626c6520746f2073656e642076616c75652c207260008201527f6563697069656e74206d61792068617665207265766572746564000000000000602082015250565b7f416464726573733a20696e73756666696369656e742062616c616e6365000000600082015250565b7f416464726573733a20696e73756666696369656e742062616c616e636520666f60008201527f722063616c6c0000000000000000000000000000000000000000000000000000602082015250565b7f5061796d656e7453706c69747465723a206163636f756e74206973206e6f742060008201527f647565207061796d656e74000000000000000000000000000000000000000000602082015250565b50565b7f416464726573733a2063616c6c20746f206e6f6e2d636f6e7472616374000000600082015250565b7f5361666545524332303a204552433230206f7065726174696f6e20646964206e60008201527f6f74207375636365656400000000000000000000000000000000000000000000602082015250565b6116fb816113ce565b811461170657600080fd5b50565b611712816113e0565b811461171d57600080fd5b50565b611729816113f2565b811461173457600080fd5b50565b611740816113fe565b811461174b57600080fd5b50565b61175781611430565b811461176257600080fd5b5056fea2646970667358221220be74bf88913bdfdde6b8ffd3918585bb6aee3af478bbffaf1cb6ace31ad9e7a164736f6c63430008040033",
  "linkReferences": {},
  "deployedLinkReferences": {}
}