{
  "_format": "hh-sol-artifact-1",
  "contractName": "ArkaniaNfts",
  "sourceName": "contracts/arkaniaNfts.sol",
  "abi": [
    {
      "inputs": [
        {
          "internalType": "string",
          "name": "baseURI",
          "type": "string"
        }
      ],
      "stateMutability": "nonpayable",
      "type": "constructor"
    },
    {
      "anonymous": false,
      "inputs": [
        {
          "indexed": true,
          "internalType": "address",
          "name": "owner",
          "type": "address"
        },
        {
          "indexed": true,
          "internalType": "address",
          "name": "approved",
          "type": "address"
        },
        {
          "indexed": true,
          "internalType": "uint256",
          "name": "tokenId",
          "type": "uint256"
        }
      ],
      "name": "Approval",
      "type": "event"
    },
    {
      "anonymous": false,
      "inputs": [
        {
          "indexed": true,
          "internalType": "address",
          "name": "owner",
          "type": "address"
        },
        {
          "indexed": true,
          "internalType": "address",
          "name": "operator",
          "type": "address"
        },
        {
          "indexed": false,
          "internalType": "bool",
          "name": "approved",
          "type": "bool"
        }
      ],
      "name": "ApprovalForAll",
      "type": "event"
    },
    {
      "anonymous": false,
      "inputs": [
        {
          "indexed": true,
          "internalType": "address",
          "name": "previousOwner",
          "type": "address"
        },
        {
          "indexed": true,
          "internalType": "address",
          "name": "newOwner",
          "type": "address"
        }
      ],
      "name": "OwnershipTransferred",
      "type": "event"
    },
    {
      "anonymous": false,
      "inputs": [
        {
          "indexed": true,
          "internalType": "address",
          "name": "from",
          "type": "address"
        },
        {
          "indexed": true,
          "internalType": "address",
          "name": "to",
          "type": "address"
        },
        {
          "indexed": true,
          "internalType": "uint256",
          "name": "tokenId",
          "type": "uint256"
        }
      ],
      "name": "Transfer",
      "type": "event"
    },
    {
      "inputs": [],
      "name": "MAX_PER_MINT",
      "outputs": [
        {
          "internalType": "uint256",
          "name": "",
          "type": "uint256"
        }
      ],
      "stateMutability": "view",
      "type": "function"
    },
    {
      "inputs": [],
      "name": "MAX_SUPPLY",
      "outputs": [
        {
          "internalType": "uint256",
          "name": "",
          "type": "uint256"
        }
      ],
      "stateMutability": "view",
      "type": "function"
    },
    {
      "inputs": [],
      "name": "PRICE",
      "outputs": [
        {
          "internalType": "uint256",
          "name": "",
          "type": "uint256"
        }
      ],
      "stateMutability": "view",
      "type": "function"
    },
    {
      "inputs": [
        {
          "internalType": "address",
          "name": "to",
          "type": "address"
        },
        {
          "internalType": "uint256",
          "name": "tokenId",
          "type": "uint256"
        }
      ],
      "name": "approve",
      "outputs": [],
      "stateMutability": "nonpayable",
      "type": "function"
    },
    {
      "inputs": [
        {
          "internalType": "address",
          "name": "owner",
          "type": "address"
        }
      ],
      "name": "balanceOf",
      "outputs": [
        {
          "internalType": "uint256",
          "name": "",
          "type": "uint256"
        }
      ],
      "stateMutability": "view",
      "type": "function"
    },
    {
      "inputs": [],
      "name": "baseTokenURI",
      "outputs": [
        {
          "internalType": "string",
          "name": "",
          "type": "string"
        }
      ],
      "stateMutability": "view",
      "type": "function"
    },
    {
      "inputs": [
        {
          "internalType": "uint256",
          "name": "tokenId",
          "type": "uint256"
        }
      ],
      "name": "getApproved",
      "outputs": [
        {
          "internalType": "address",
          "name": "",
          "type": "address"
        }
      ],
      "stateMutability": "view",
      "type": "function"
    },
    {
      "inputs": [
        {
          "internalType": "address",
          "name": "owner",
          "type": "address"
        },
        {
          "internalType": "address",
          "name": "operator",
          "type": "address"
        }
      ],
      "name": "isApprovedForAll",
      "outputs": [
        {
          "internalType": "bool",
          "name": "",
          "type": "bool"
        }
      ],
      "stateMutability": "view",
      "type": "function"
    },
    {
      "inputs": [
        {
          "internalType": "uint256",
          "name": "_count",
          "type": "uint256"
        }
      ],
      "name": "mintNFTs",
      "outputs": [],
      "stateMutability": "payable",
      "type": "function"
    },
    {
      "inputs": [],
      "name": "name",
      "outputs": [
        {
          "internalType": "string",
          "name": "",
          "type": "string"
        }
      ],
      "stateMutability": "view",
      "type": "function"
    },
    {
      "inputs": [],
      "name": "owner",
      "outputs": [
        {
          "internalType": "address",
          "name": "",
          "type": "address"
        }
      ],
      "stateMutability": "view",
      "type": "function"
    },
    {
      "inputs": [
        {
          "internalType": "uint256",
          "name": "tokenId",
          "type": "uint256"
        }
      ],
      "name": "ownerOf",
      "outputs": [
        {
          "internalType": "address",
          "name": "",
          "type": "address"
        }
      ],
      "stateMutability": "view",
      "type": "function"
    },
    {
      "inputs": [],
      "name": "renounceOwnership",
      "outputs": [],
      "stateMutability": "nonpayable",
      "type": "function"
    },
    {
      "inputs": [],
      "name": "reserveNFTs",
      "outputs": [],
      "stateMutability": "nonpayable",
      "type": "function"
    },
    {
      "inputs": [
        {
          "internalType": "address",
          "name": "from",
          "type": "address"
        },
        {
          "internalType": "address",
          "name": "to",
          "type": "address"
        },
        {
          "internalType": "uint256",
          "name": "tokenId",
          "type": "uint256"
        }
      ],
      "name": "safeTransferFrom",
      "outputs": [],
      "stateMutability": "nonpayable",
      "type": "function"
    },
    {
      "inputs": [
        {
          "internalType": "address",
          "name": "from",
          "type": "address"
        },
        {
          "internalType": "address",
          "name": "to",
          "type": "address"
        },
        {
          "internalType": "uint256",
          "name": "tokenId",
          "type": "uint256"
        },
        {
          "internalType": "bytes",
          "name": "_data",
          "type": "bytes"
        }
      ],
      "name": "safeTransferFrom",
      "outputs": [],
      "stateMutability": "nonpayable",
      "type": "function"
    },
    {
      "inputs": [
        {
          "internalType": "address",
          "name": "operator",
          "type": "address"
        },
        {
          "internalType": "bool",
          "name": "approved",
          "type": "bool"
        }
      ],
      "name": "setApprovalForAll",
      "outputs": [],
      "stateMutability": "nonpayable",
      "type": "function"
    },
    {
      "inputs": [
        {
          "internalType": "string",
          "name": "_baseTokenURI",
          "type": "string"
        }
      ],
      "name": "setBaseURI",
      "outputs": [],
      "stateMutability": "nonpayable",
      "type": "function"
    },
    {
      "inputs": [
        {
          "internalType": "bytes4",
          "name": "interfaceId",
          "type": "bytes4"
        }
      ],
      "name": "supportsInterface",
      "outputs": [
        {
          "internalType": "bool",
          "name": "",
          "type": "bool"
        }
      ],
      "stateMutability": "view",
      "type": "function"
    },
    {
      "inputs": [],
      "name": "symbol",
      "outputs": [
        {
          "internalType": "string",
          "name": "",
          "type": "string"
        }
      ],
      "stateMutability": "view",
      "type": "function"
    },
    {
      "inputs": [
        {
          "internalType": "uint256",
          "name": "index",
          "type": "uint256"
        }
      ],
      "name": "tokenByIndex",
      "outputs": [
        {
          "internalType": "uint256",
          "name": "",
          "type": "uint256"
        }
      ],
      "stateMutability": "view",
      "type": "function"
    },
    {
      "inputs": [
        {
          "internalType": "address",
          "name": "owner",
          "type": "address"
        },
        {
          "internalType": "uint256",
          "name": "index",
          "type": "uint256"
        }
      ],
      "name": "tokenOfOwnerByIndex",
      "outputs": [
        {
          "internalType": "uint256",
          "name": "",
          "type": "uint256"
        }
      ],
      "stateMutability": "view",
      "type": "function"
    },
    {
      "inputs": [
        {
          "internalType": "uint256",
          "name": "tokenId",
          "type": "uint256"
        }
      ],
      "name": "tokenURI",
      "outputs": [
        {
          "internalType": "string",
          "name": "",
          "type": "string"
        }
      ],
      "stateMutability": "view",
      "type": "function"
    },
    {
      "inputs": [
        {
          "internalType": "address",
          "name": "_owner",
          "type": "address"
        }
      ],
      "name": "tokensOfOwner",
      "outputs": [
        {
          "internalType": "uint256[]",
          "name": "",
          "type": "uint256[]"
        }
      ],
      "stateMutability": "view",
      "type": "function"
    },
    {
      "inputs": [],
      "name": "totalSupply",
      "outputs": [
        {
          "internalType": "uint256",
          "name": "",
          "type": "uint256"
        }
      ],
      "stateMutability": "view",
      "type": "function"
    },
    {
      "inputs": [
        {
          "internalType": "address",
          "name": "from",
          "type": "address"
        },
        {
          "internalType": "address",
          "name": "to",
          "type": "address"
        },
        {
          "internalType": "uint256",
          "name": "tokenId",
          "type": "uint256"
        }
      ],
      "name": "transferFrom",
      "outputs": [],
      "stateMutability": "nonpayable",
      "type": "function"
    },
    {
      "inputs": [
        {
          "internalType": "address",
          "name": "newOwner",
          "type": "address"
        }
      ],
      "name": "transferOwnership",
      "outputs": [],
      "stateMutability": "nonpayable",
      "type": "function"
    },
    {
      "inputs": [],
      "name": "withdraw",
      "outputs": [],
      "stateMutability": "payable",
      "type": "function"
    }
  ],
  "bytecode": "0x60806040523480156200001157600080fd5b506040516200472f3803806200472f8339818101604052810190620000379190620003d4565b6040518060400160405280600c81526020017f61726b616e6961204e66747300000000000000000000000000000000000000008152506040518060400160405280600381526020017f41524b00000000000000000000000000000000000000000000000000000000008152508160009080519060200190620000bb929190620002b2565b508060019080519060200190620000d4929190620002b2565b505050620000f7620000eb6200010f60201b60201c565b6200011760201b60201c565b6200010881620001dd60201b60201c565b506200060c565b600033905090565b6000600a60009054906101000a900473ffffffffffffffffffffffffffffffffffffffff16905081600a60006101000a81548173ffffffffffffffffffffffffffffffffffffffff021916908373ffffffffffffffffffffffffffffffffffffffff1602179055508173ffffffffffffffffffffffffffffffffffffffff168173ffffffffffffffffffffffffffffffffffffffff167f8be0079c531659141344cd1fd0a4f28419497f9722a3daafe3b4186f6b6457e060405160405180910390a35050565b620001ed6200010f60201b60201c565b73ffffffffffffffffffffffffffffffffffffffff16620002136200028860201b60201c565b73ffffffffffffffffffffffffffffffffffffffff16146200026c576040517f08c379a0000000000000000000000000000000000000000000000000000000008152600401620002639062000440565b60405180910390fd5b80600c908051906020019062000284929190620002b2565b5050565b6000600a60009054906101000a900473ffffffffffffffffffffffffffffffffffffffff16905090565b828054620002c09062000508565b90600052602060002090601f016020900481019282620002e4576000855562000330565b82601f10620002ff57805160ff191683800117855562000330565b8280016001018555821562000330579182015b828111156200032f57825182559160200191906001019062000312565b5b5090506200033f919062000343565b5090565b5b808211156200035e57600081600090555060010162000344565b5090565b60006200037962000373846200048b565b62000462565b9050828152602081018484840111156200039257600080fd5b6200039f848285620004d2565b509392505050565b600082601f830112620003b957600080fd5b8151620003cb84826020860162000362565b91505092915050565b600060208284031215620003e757600080fd5b600082015167ffffffffffffffff8111156200040257600080fd5b6200041084828501620003a7565b91505092915050565b600062000428602083620004c1565b91506200043582620005e3565b602082019050919050565b600060208201905081810360008301526200045b8162000419565b9050919050565b60006200046e62000481565b90506200047c82826200053e565b919050565b6000604051905090565b600067ffffffffffffffff821115620004a957620004a8620005a3565b5b620004b482620005d2565b9050602081019050919050565b600082825260208201905092915050565b60005b83811015620004f2578082015181840152602081019050620004d5565b8381111562000502576000848401525b50505050565b600060028204905060018216806200052157607f821691505b6020821081141562000538576200053762000574565b5b50919050565b6200054982620005d2565b810181811067ffffffffffffffff821117156200056b576200056a620005a3565b5b80604052505050565b7f4e487b7100000000000000000000000000000000000000000000000000000000600052602260045260246000fd5b7f4e487b7100000000000000000000000000000000000000000000000000000000600052604160045260246000fd5b6000601f19601f8301169050919050565b7f4f776e61626c653a2063616c6c6572206973206e6f7420746865206f776e6572600082015250565b614113806200061c6000396000f3fe6080604052600436106101b75760003560e01c806355f804b3116100ec57806395d89b411161008a578063c87b56dd11610064578063c87b56dd146105de578063d547cfb71461061b578063e985e9c514610646578063f2fde38b14610683576101b7565b806395d89b4114610561578063a22cb4651461058c578063b88d4fde146105b5576101b7565b8063715018a6116100c6578063715018a6146104b75780638462151c146104ce5780638d859f3e1461050b5780638da5cb5b14610536576101b7565b806355f804b3146104145780636352211e1461043d57806370a082311461047a576101b7565b806323b872dd116101595780633b4b1381116101335780633b4b1381146103885780633ccfd60b146103a457806342842e0e146103ae5780634f6ccce7146103d7576101b7565b806323b872dd146102f75780632f745c591461032057806332cb6b0c1461035d576101b7565b8063095ea7b311610195578063095ea7b31461026157806309d42b301461028a578063144100c7146102b557806318160ddd146102cc576101b7565b806301ffc9a7146101bc57806306fdde03146101f9578063081812fc14610224575b600080fd5b3480156101c857600080fd5b506101e360048036038101906101de9190612d19565b6106ac565b6040516101f09190613334565b60405180910390f35b34801561020557600080fd5b5061020e610726565b60405161021b919061334f565b60405180910390f35b34801561023057600080fd5b5061024b60048036038101906102469190612dac565b6107b8565b60405161025891906132ab565b60405180910390f35b34801561026d57600080fd5b5061028860048036038101906102839190612cdd565b61083d565b005b34801561029657600080fd5b5061029f610955565b6040516102ac9190613651565b60405180910390f35b3480156102c157600080fd5b506102ca61095a565b005b3480156102d857600080fd5b506102e1610a65565b6040516102ee9190613651565b60405180910390f35b34801561030357600080fd5b5061031e60048036038101906103199190612bd7565b610a72565b005b34801561032c57600080fd5b5061034760048036038101906103429190612cdd565b610ad2565b6040516103549190613651565b60405180910390f35b34801561036957600080fd5b50610372610b77565b60405161037f9190613651565b60405180910390f35b6103a2600480360381019061039d9190612dac565b610b7c565b005b6103ac610c5b565b005b3480156103ba57600080fd5b506103d560048036038101906103d09190612bd7565b610dcf565b005b3480156103e357600080fd5b506103fe60048036038101906103f99190612dac565b610def565b60405161040b9190613651565b60405180910390f35b34801561042057600080fd5b5061043b60048036038101906104369190612d6b565b610e86565b005b34801561044957600080fd5b50610464600480360381019061045f9190612dac565b610f1c565b60405161047191906132ab565b60405180910390f35b34801561048657600080fd5b506104a1600480360381019061049c9190612b72565b610fce565b6040516104ae9190613651565b60405180910390f35b3480156104c357600080fd5b506104cc611086565b005b3480156104da57600080fd5b506104f560048036038101906104f09190612b72565b61110e565b6040516105029190613312565b60405180910390f35b34801561051757600080fd5b50610520611208565b60405161052d9190613651565b60405180910390f35b34801561054257600080fd5b5061054b611213565b60405161055891906132ab565b60405180910390f35b34801561056d57600080fd5b5061057661123d565b604051610583919061334f565b60405180910390f35b34801561059857600080fd5b506105b360048036038101906105ae9190612ca1565b6112cf565b005b3480156105c157600080fd5b506105dc60048036038101906105d79190612c26565b6112e5565b005b3480156105ea57600080fd5b5061060560048036038101906106009190612dac565b611347565b604051610612919061334f565b60405180910390f35b34801561062757600080fd5b506106306113ee565b60405161063d919061334f565b60405180910390f35b34801561065257600080fd5b5061066d60048036038101906106689190612b9b565b61147c565b60405161067a9190613334565b60405180910390f35b34801561068f57600080fd5b506106aa60048036038101906106a59190612b72565b611510565b005b60007f780e9d63000000000000000000000000000000000000000000000000000000007bffffffffffffffffffffffffffffffffffffffffffffffffffffffff1916827bffffffffffffffffffffffffffffffffffffffffffffffffffffffff1916148061071f575061071e82611608565b5b9050919050565b606060008054610735906138eb565b80601f0160208091040260200160405190810160405280929190818152602001828054610761906138eb565b80156107ae5780601f10610783576101008083540402835291602001916107ae565b820191906000526020600020905b81548152906001019060200180831161079157829003601f168201915b5050505050905090565b60006107c3826116ea565b610802576040517f08c379a00000000000000000000000000000000000000000000000000000000081526004016107f990613571565b60405180910390fd5b6004600083815260200190815260200160002060009054906101000a900473ffffffffffffffffffffffffffffffffffffffff169050919050565b600061084882610f1c565b90508073ffffffffffffffffffffffffffffffffffffffff168373ffffffffffffffffffffffffffffffffffffffff1614156108b9576040517f08c379a00000000000000000000000000000000000000000000000000000000081526004016108b0906135d1565b60405180910390fd5b8073ffffffffffffffffffffffffffffffffffffffff166108d8611756565b73ffffffffffffffffffffffffffffffffffffffff161480610907575061090681610901611756565b61147c565b5b610946576040517f08c379a000000000000000000000000000000000000000000000000000000000815260040161093d906134d1565b60405180910390fd5b610950838361175e565b505050565b600581565b610962611756565b73ffffffffffffffffffffffffffffffffffffffff16610980611213565b73ffffffffffffffffffffffffffffffffffffffff16146109d6576040517f08c379a00000000000000000000000000000000000000000000000000000000081526004016109cd90613591565b60405180910390fd5b60006109e2600b611817565b905060646109fa60018361182590919063ffffffff16565b10610a3a576040517f08c379a0000000000000000000000000000000000000000000000000000000008152600401610a3190613371565b60405180910390fd5b60005b6001811015610a6157610a4e61183b565b8080610a599061394e565b915050610a3d565b5050565b6000600880549050905090565b610a83610a7d611756565b82611860565b610ac2576040517f08c379a0000000000000000000000000000000000000000000000000000000008152600401610ab990613611565b60405180910390fd5b610acd83838361193e565b505050565b6000610add83610fce565b8210610b1e576040517f08c379a0000000000000000000000000000000000000000000000000000000008152600401610b1590613391565b60405180910390fd5b600660008473ffffffffffffffffffffffffffffffffffffffff1673ffffffffffffffffffffffffffffffffffffffff168152602001908152602001600020600083815260200190815260200160002054905092915050565b606481565b6000610b88600b611817565b90506064610b9f838361182590919063ffffffff16565b1115610be0576040517f08c379a0000000000000000000000000000000000000000000000000000000008152600401610bd790613471565b60405180910390fd5b600082118015610bf1575060058211155b610c30576040517f08c379a0000000000000000000000000000000000000000000000000000000008152600401610c2790613491565b60405180910390fd5b60005b82811015610c5657610c4361183b565b8080610c4e9061394e565b915050610c33565b505050565b610c63611756565b73ffffffffffffffffffffffffffffffffffffffff16610c81611213565b73ffffffffffffffffffffffffffffffffffffffff1614610cd7576040517f08c379a0000000000000000000000000000000000000000000000000000000008152600401610cce90613591565b60405180910390fd5b600047905060008111610d1f576040517f08c379a0000000000000000000000000000000000000000000000000000000008152600401610d1690613551565b60405180910390fd5b60003373ffffffffffffffffffffffffffffffffffffffff1682604051610d4590613296565b60006040518083038185875af1925050503d8060008114610d82576040519150601f19603f3d011682016040523d82523d6000602084013e610d87565b606091505b5050905080610dcb576040517f08c379a0000000000000000000000000000000000000000000000000000000008152600401610dc2906135f1565b60405180910390fd5b5050565b610dea838383604051806020016040528060008152506112e5565b505050565b6000610df9610a65565b8210610e3a576040517f08c379a0000000000000000000000000000000000000000000000000000000008152600401610e3190613631565b60405180910390fd5b60088281548110610e74577f4e487b7100000000000000000000000000000000000000000000000000000000600052603260045260246000fd5b90600052602060002001549050919050565b610e8e611756565b73ffffffffffffffffffffffffffffffffffffffff16610eac611213565b73ffffffffffffffffffffffffffffffffffffffff1614610f02576040517f08c379a0000000000000000000000000000000000000000000000000000000008152600401610ef990613591565b60405180910390fd5b80600c9080519060200190610f18929190612996565b5050565b6000806002600084815260200190815260200160002060009054906101000a900473ffffffffffffffffffffffffffffffffffffffff169050600073ffffffffffffffffffffffffffffffffffffffff168173ffffffffffffffffffffffffffffffffffffffff161415610fc5576040517f08c379a0000000000000000000000000000000000000000000000000000000008152600401610fbc90613511565b60405180910390fd5b80915050919050565b60008073ffffffffffffffffffffffffffffffffffffffff168273ffffffffffffffffffffffffffffffffffffffff16141561103f576040517f08c379a0000000000000000000000000000000000000000000000000000000008152600401611036906134f1565b60405180910390fd5b600360008373ffffffffffffffffffffffffffffffffffffffff1673ffffffffffffffffffffffffffffffffffffffff168152602001908152602001600020549050919050565b61108e611756565b73ffffffffffffffffffffffffffffffffffffffff166110ac611213565b73ffffffffffffffffffffffffffffffffffffffff1614611102576040517f08c379a00000000000000000000000000000000000000000000000000000000081526004016110f990613591565b60405180910390fd5b61110c6000611ba5565b565b6060600061111b83610fce565b905060008167ffffffffffffffff81111561115f577f4e487b7100000000000000000000000000000000000000000000000000000000600052604160045260246000fd5b60405190808252806020026020018201604052801561118d5781602001602082028036833780820191505090505b50905060005b828110156111fd576111a58582610ad2565b8282815181106111de577f4e487b7100000000000000000000000000000000000000000000000000000000600052603260045260246000fd5b60200260200101818152505080806111f59061394e565b915050611193565b508092505050919050565b662386f26fc1000081565b6000600a60009054906101000a900473ffffffffffffffffffffffffffffffffffffffff16905090565b60606001805461124c906138eb565b80601f0160208091040260200160405190810160405280929190818152602001828054611278906138eb565b80156112c55780601f1061129a576101008083540402835291602001916112c5565b820191906000526020600020905b8154815290600101906020018083116112a857829003601f168201915b5050505050905090565b6112e16112da611756565b8383611c6b565b5050565b6112f66112f0611756565b83611860565b611335576040517f08c379a000000000000000000000000000000000000000000000000000000000815260040161132c90613611565b60405180910390fd5b61134184848484611dd8565b50505050565b6060611352826116ea565b611391576040517f08c379a0000000000000000000000000000000000000000000000000000000008152600401611388906135b1565b60405180910390fd5b600061139b611e34565b905060008151116113bb57604051806020016040528060008152506113e6565b806113c584611ec6565b6040516020016113d6929190613272565b6040516020818303038152906040525b915050919050565b600c80546113fb906138eb565b80601f0160208091040260200160405190810160405280929190818152602001828054611427906138eb565b80156114745780601f1061144957610100808354040283529160200191611474565b820191906000526020600020905b81548152906001019060200180831161145757829003601f168201915b505050505081565b6000600560008473ffffffffffffffffffffffffffffffffffffffff1673ffffffffffffffffffffffffffffffffffffffff16815260200190815260200160002060008373ffffffffffffffffffffffffffffffffffffffff1673ffffffffffffffffffffffffffffffffffffffff16815260200190815260200160002060009054906101000a900460ff16905092915050565b611518611756565b73ffffffffffffffffffffffffffffffffffffffff16611536611213565b73ffffffffffffffffffffffffffffffffffffffff161461158c576040517f08c379a000000000000000000000000000000000000000000000000000000000815260040161158390613591565b60405180910390fd5b600073ffffffffffffffffffffffffffffffffffffffff168173ffffffffffffffffffffffffffffffffffffffff1614156115fc576040517f08c379a00000000000000000000000000000000000000000000000000000000081526004016115f3906133d1565b60405180910390fd5b61160581611ba5565b50565b60007f80ac58cd000000000000000000000000000000000000000000000000000000007bffffffffffffffffffffffffffffffffffffffffffffffffffffffff1916827bffffffffffffffffffffffffffffffffffffffffffffffffffffffff191614806116d357507f5b5e139f000000000000000000000000000000000000000000000000000000007bffffffffffffffffffffffffffffffffffffffffffffffffffffffff1916827bffffffffffffffffffffffffffffffffffffffffffffffffffffffff1916145b806116e357506116e282612073565b5b9050919050565b60008073ffffffffffffffffffffffffffffffffffffffff166002600084815260200190815260200160002060009054906101000a900473ffffffffffffffffffffffffffffffffffffffff1673ffffffffffffffffffffffffffffffffffffffff1614159050919050565b600033905090565b816004600083815260200190815260200160002060006101000a81548173ffffffffffffffffffffffffffffffffffffffff021916908373ffffffffffffffffffffffffffffffffffffffff160217905550808273ffffffffffffffffffffffffffffffffffffffff166117d183610f1c565b73ffffffffffffffffffffffffffffffffffffffff167f8c5be1e5ebec7d5bd14f71427d1e84f3dd0314c0f7b2291e5b200ac8c7c3b92560405160405180910390a45050565b600081600001549050919050565b60008183611833919061377a565b905092915050565b6000611847600b611817565b905061185333826120dd565b61185d600b6120fb565b50565b600061186b826116ea565b6118aa576040517f08c379a00000000000000000000000000000000000000000000000000000000081526004016118a1906134b1565b60405180910390fd5b60006118b583610f1c565b90508073ffffffffffffffffffffffffffffffffffffffff168473ffffffffffffffffffffffffffffffffffffffff16148061192457508373ffffffffffffffffffffffffffffffffffffffff1661190c846107b8565b73ffffffffffffffffffffffffffffffffffffffff16145b806119355750611934818561147c565b5b91505092915050565b8273ffffffffffffffffffffffffffffffffffffffff1661195e82610f1c565b73ffffffffffffffffffffffffffffffffffffffff16146119b4576040517f08c379a00000000000000000000000000000000000000000000000000000000081526004016119ab906133f1565b60405180910390fd5b600073ffffffffffffffffffffffffffffffffffffffff168273ffffffffffffffffffffffffffffffffffffffff161415611a24576040517f08c379a0000000000000000000000000000000000000000000000000000000008152600401611a1b90613431565b60405180910390fd5b611a2f838383612111565b611a3a60008261175e565b6001600360008573ffffffffffffffffffffffffffffffffffffffff1673ffffffffffffffffffffffffffffffffffffffff1681526020019081526020016000206000828254611a8a9190613801565b925050819055506001600360008473ffffffffffffffffffffffffffffffffffffffff1673ffffffffffffffffffffffffffffffffffffffff1681526020019081526020016000206000828254611ae1919061377a565b92505081905550816002600083815260200190815260200160002060006101000a81548173ffffffffffffffffffffffffffffffffffffffff021916908373ffffffffffffffffffffffffffffffffffffffff160217905550808273ffffffffffffffffffffffffffffffffffffffff168473ffffffffffffffffffffffffffffffffffffffff167fddf252ad1be2c89b69c2b068fc378daa952ba7f163c4a11628f55a4df523b3ef60405160405180910390a4611ba0838383612225565b505050565b6000600a60009054906101000a900473ffffffffffffffffffffffffffffffffffffffff16905081600a60006101000a81548173ffffffffffffffffffffffffffffffffffffffff021916908373ffffffffffffffffffffffffffffffffffffffff1602179055508173ffffffffffffffffffffffffffffffffffffffff168173ffffffffffffffffffffffffffffffffffffffff167f8be0079c531659141344cd1fd0a4f28419497f9722a3daafe3b4186f6b6457e060405160405180910390a35050565b8173ffffffffffffffffffffffffffffffffffffffff168373ffffffffffffffffffffffffffffffffffffffff161415611cda576040517f08c379a0000000000000000000000000000000000000000000000000000000008152600401611cd190613451565b60405180910390fd5b80600560008573ffffffffffffffffffffffffffffffffffffffff1673ffffffffffffffffffffffffffffffffffffffff16815260200190815260200160002060008473ffffffffffffffffffffffffffffffffffffffff1673ffffffffffffffffffffffffffffffffffffffff16815260200190815260200160002060006101000a81548160ff0219169083151502179055508173ffffffffffffffffffffffffffffffffffffffff168373ffffffffffffffffffffffffffffffffffffffff167f17307eab39ab6107e8899845ad3d59bd9653f200f220920489ca2b5937696c3183604051611dcb9190613334565b60405180910390a3505050565b611de384848461193e565b611def8484848461222a565b611e2e576040517f08c379a0000000000000000000000000000000000000000000000000000000008152600401611e25906133b1565b60405180910390fd5b50505050565b6060600c8054611e43906138eb565b80601f0160208091040260200160405190810160405280929190818152602001828054611e6f906138eb565b8015611ebc5780601f10611e9157610100808354040283529160200191611ebc565b820191906000526020600020905b815481529060010190602001808311611e9f57829003601f168201915b5050505050905090565b60606000821415611f0e576040518060400160405280600181526020017f3000000000000000000000000000000000000000000000000000000000000000815250905061206e565b600082905060005b60008214611f40578080611f299061394e565b915050600a82611f3991906137d0565b9150611f16565b60008167ffffffffffffffff811115611f82577f4e487b7100000000000000000000000000000000000000000000000000000000600052604160045260246000fd5b6040519080825280601f01601f191660200182016040528015611fb45781602001600182028036833780820191505090505b5090505b6000851461206757600182611fcd9190613801565b9150600a85611fdc9190613997565b6030611fe8919061377a565b60f81b818381518110612024577f4e487b7100000000000000000000000000000000000000000000000000000000600052603260045260246000fd5b60200101907effffffffffffffffffffffffffffffffffffffffffffffffffffffffffffff1916908160001a905350600a8561206091906137d0565b9450611fb8565b8093505050505b919050565b60007f01ffc9a7000000000000000000000000000000000000000000000000000000007bffffffffffffffffffffffffffffffffffffffffffffffffffffffff1916827bffffffffffffffffffffffffffffffffffffffffffffffffffffffff1916149050919050565b6120f78282604051806020016040528060008152506123c1565b5050565b6001816000016000828254019250508190555050565b61211c83838361241c565b600073ffffffffffffffffffffffffffffffffffffffff168373ffffffffffffffffffffffffffffffffffffffff16141561215f5761215a81612421565b61219e565b8173ffffffffffffffffffffffffffffffffffffffff168373ffffffffffffffffffffffffffffffffffffffff161461219d5761219c838261246a565b5b5b600073ffffffffffffffffffffffffffffffffffffffff168273ffffffffffffffffffffffffffffffffffffffff1614156121e1576121dc816125d7565b612220565b8273ffffffffffffffffffffffffffffffffffffffff168273ffffffffffffffffffffffffffffffffffffffff161461221f5761221e828261271a565b5b5b505050565b505050565b600061224b8473ffffffffffffffffffffffffffffffffffffffff16612799565b156123b4578373ffffffffffffffffffffffffffffffffffffffff1663150b7a02612274611756565b8786866040518563ffffffff1660e01b815260040161229694939291906132c6565b602060405180830381600087803b1580156122b057600080fd5b505af19250505080156122e157506040513d601f19601f820116820180604052508101906122de9190612d42565b60015b612364573d8060008114612311576040519150601f19603f3d011682016040523d82523d6000602084013e612316565b606091505b5060008151141561235c576040517f08c379a0000000000000000000000000000000000000000000000000000000008152600401612353906133b1565b60405180910390fd5b805181602001fd5b63150b7a0260e01b7bffffffffffffffffffffffffffffffffffffffffffffffffffffffff1916817bffffffffffffffffffffffffffffffffffffffffffffffffffffffff1916149150506123b9565b600190505b949350505050565b6123cb83836127bc565b6123d8600084848461222a565b612417576040517f08c379a000000000000000000000000000000000000000000000000000000000815260040161240e906133b1565b60405180910390fd5b505050565b505050565b6008805490506009600083815260200190815260200160002081905550600881908060018154018082558091505060019003906000526020600020016000909190919091505550565b6000600161247784610fce565b6124819190613801565b9050600060076000848152602001908152602001600020549050818114612566576000600660008673ffffffffffffffffffffffffffffffffffffffff1673ffffffffffffffffffffffffffffffffffffffff168152602001908152602001600020600084815260200190815260200160002054905080600660008773ffffffffffffffffffffffffffffffffffffffff1673ffffffffffffffffffffffffffffffffffffffff168152602001908152602001600020600084815260200190815260200160002081905550816007600083815260200190815260200160002081905550505b6007600084815260200190815260200160002060009055600660008573ffffffffffffffffffffffffffffffffffffffff1673ffffffffffffffffffffffffffffffffffffffff16815260200190815260200160002060008381526020019081526020016000206000905550505050565b600060016008805490506125eb9190613801565b9050600060096000848152602001908152602001600020549050600060088381548110612641577f4e487b7100000000000000000000000000000000000000000000000000000000600052603260045260246000fd5b906000526020600020015490508060088381548110612689577f4e487b7100000000000000000000000000000000000000000000000000000000600052603260045260246000fd5b9060005260206000200181905550816009600083815260200190815260200160002081905550600960008581526020019081526020016000206000905560088054806126fe577f4e487b7100000000000000000000000000000000000000000000000000000000600052603160045260246000fd5b6001900381819060005260206000200160009055905550505050565b600061272583610fce565b905081600660008573ffffffffffffffffffffffffffffffffffffffff1673ffffffffffffffffffffffffffffffffffffffff168152602001908152602001600020600083815260200190815260200160002081905550806007600084815260200190815260200160002081905550505050565b6000808273ffffffffffffffffffffffffffffffffffffffff163b119050919050565b600073ffffffffffffffffffffffffffffffffffffffff168273ffffffffffffffffffffffffffffffffffffffff16141561282c576040517f08c379a000000000000000000000000000000000000000000000000000000000815260040161282390613531565b60405180910390fd5b612835816116ea565b15612875576040517f08c379a000000000000000000000000000000000000000000000000000000000815260040161286c90613411565b60405180910390fd5b61288160008383612111565b6001600360008473ffffffffffffffffffffffffffffffffffffffff1673ffffffffffffffffffffffffffffffffffffffff16815260200190815260200160002060008282546128d1919061377a565b92505081905550816002600083815260200190815260200160002060006101000a81548173ffffffffffffffffffffffffffffffffffffffff021916908373ffffffffffffffffffffffffffffffffffffffff160217905550808273ffffffffffffffffffffffffffffffffffffffff16600073ffffffffffffffffffffffffffffffffffffffff167fddf252ad1be2c89b69c2b068fc378daa952ba7f163c4a11628f55a4df523b3ef60405160405180910390a461299260008383612225565b5050565b8280546129a2906138eb565b90600052602060002090601f0160209004810192826129c45760008555612a0b565b82601f106129dd57805160ff1916838001178555612a0b565b82800160010185558215612a0b579182015b82811115612a0a5782518255916020019190600101906129ef565b5b509050612a189190612a1c565b5090565b5b80821115612a35576000816000905550600101612a1d565b5090565b6000612a4c612a4784613691565b61366c565b905082815260208101848484011115612a6457600080fd5b612a6f8482856138a9565b509392505050565b6000612a8a612a85846136c2565b61366c565b905082815260208101848484011115612aa257600080fd5b612aad8482856138a9565b509392505050565b600081359050612ac481614081565b92915050565b600081359050612ad981614098565b92915050565b600081359050612aee816140af565b92915050565b600081519050612b03816140af565b92915050565b600082601f830112612b1a57600080fd5b8135612b2a848260208601612a39565b91505092915050565b600082601f830112612b4457600080fd5b8135612b54848260208601612a77565b91505092915050565b600081359050612b6c816140c6565b92915050565b600060208284031215612b8457600080fd5b6000612b9284828501612ab5565b91505092915050565b60008060408385031215612bae57600080fd5b6000612bbc85828601612ab5565b9250506020612bcd85828601612ab5565b9150509250929050565b600080600060608486031215612bec57600080fd5b6000612bfa86828701612ab5565b9350506020612c0b86828701612ab5565b9250506040612c1c86828701612b5d565b9150509250925092565b60008060008060808587031215612c3c57600080fd5b6000612c4a87828801612ab5565b9450506020612c5b87828801612ab5565b9350506040612c6c87828801612b5d565b925050606085013567ffffffffffffffff811115612c8957600080fd5b612c9587828801612b09565b91505092959194509250565b60008060408385031215612cb457600080fd5b6000612cc285828601612ab5565b9250506020612cd385828601612aca565b9150509250929050565b60008060408385031215612cf057600080fd5b6000612cfe85828601612ab5565b9250506020612d0f85828601612b5d565b9150509250929050565b600060208284031215612d2b57600080fd5b6000612d3984828501612adf565b91505092915050565b600060208284031215612d5457600080fd5b6000612d6284828501612af4565b91505092915050565b600060208284031215612d7d57600080fd5b600082013567ffffffffffffffff811115612d9757600080fd5b612da384828501612b33565b91505092915050565b600060208284031215612dbe57600080fd5b6000612dcc84828501612b5d565b91505092915050565b6000612de18383613254565b60208301905092915050565b612df681613835565b82525050565b6000612e0782613703565b612e118185613731565b9350612e1c836136f3565b8060005b83811015612e4d578151612e348882612dd5565b9750612e3f83613724565b925050600181019050612e20565b5085935050505092915050565b612e6381613847565b82525050565b6000612e748261370e565b612e7e8185613742565b9350612e8e8185602086016138b8565b612e9781613a84565b840191505092915050565b6000612ead82613719565b612eb7818561375e565b9350612ec78185602086016138b8565b612ed081613a84565b840191505092915050565b6000612ee682613719565b612ef0818561376f565b9350612f008185602086016138b8565b80840191505092915050565b6000612f19601f8361375e565b9150612f2482613a95565b602082019050919050565b6000612f3c602b8361375e565b9150612f4782613abe565b604082019050919050565b6000612f5f60328361375e565b9150612f6a82613b0d565b604082019050919050565b6000612f8260268361375e565b9150612f8d82613b5c565b604082019050919050565b6000612fa560258361375e565b9150612fb082613bab565b604082019050919050565b6000612fc8601c8361375e565b9150612fd382613bfa565b602082019050919050565b6000612feb60248361375e565b9150612ff682613c23565b604082019050919050565b600061300e60198361375e565b915061301982613c72565b602082019050919050565b600061303160158361375e565b915061303c82613c9b565b602082019050919050565b600061305460258361375e565b915061305f82613cc4565b604082019050919050565b6000613077602c8361375e565b915061308282613d13565b604082019050919050565b600061309a60388361375e565b91506130a582613d62565b604082019050919050565b60006130bd602a8361375e565b91506130c882613db1565b604082019050919050565b60006130e060298361375e565b91506130eb82613e00565b604082019050919050565b600061310360208361375e565b915061310e82613e4f565b602082019050919050565b600061312660198361375e565b915061313182613e78565b602082019050919050565b6000613149602c8361375e565b915061315482613ea1565b604082019050919050565b600061316c60208361375e565b915061317782613ef0565b602082019050919050565b600061318f602f8361375e565b915061319a82613f19565b604082019050919050565b60006131b260218361375e565b91506131bd82613f68565b604082019050919050565b60006131d5600083613753565b91506131e082613fb7565b600082019050919050565b60006131f860108361375e565b915061320382613fba565b602082019050919050565b600061321b60318361375e565b915061322682613fe3565b604082019050919050565b600061323e602c8361375e565b915061324982614032565b604082019050919050565b61325d8161389f565b82525050565b61326c8161389f565b82525050565b600061327e8285612edb565b915061328a8284612edb565b91508190509392505050565b60006132a1826131c8565b9150819050919050565b60006020820190506132c06000830184612ded565b92915050565b60006080820190506132db6000830187612ded565b6132e86020830186612ded565b6132f56040830185613263565b81810360608301526133078184612e69565b905095945050505050565b6000602082019050818103600083015261332c8184612dfc565b905092915050565b60006020820190506133496000830184612e5a565b92915050565b600060208201905081810360008301526133698184612ea2565b905092915050565b6000602082019050818103600083015261338a81612f0c565b9050919050565b600060208201905081810360008301526133aa81612f2f565b9050919050565b600060208201905081810360008301526133ca81612f52565b9050919050565b600060208201905081810360008301526133ea81612f75565b9050919050565b6000602082019050818103600083015261340a81612f98565b9050919050565b6000602082019050818103600083015261342a81612fbb565b9050919050565b6000602082019050818103600083015261344a81612fde565b9050919050565b6000602082019050818103600083015261346a81613001565b9050919050565b6000602082019050818103600083015261348a81613024565b9050919050565b600060208201905081810360008301526134aa81613047565b9050919050565b600060208201905081810360008301526134ca8161306a565b9050919050565b600060208201905081810360008301526134ea8161308d565b9050919050565b6000602082019050818103600083015261350a816130b0565b9050919050565b6000602082019050818103600083015261352a816130d3565b9050919050565b6000602082019050818103600083015261354a816130f6565b9050919050565b6000602082019050818103600083015261356a81613119565b9050919050565b6000602082019050818103600083015261358a8161313c565b9050919050565b600060208201905081810360008301526135aa8161315f565b9050919050565b600060208201905081810360008301526135ca81613182565b9050919050565b600060208201905081810360008301526135ea816131a5565b9050919050565b6000602082019050818103600083015261360a816131eb565b9050919050565b6000602082019050818103600083015261362a8161320e565b9050919050565b6000602082019050818103600083015261364a81613231565b9050919050565b60006020820190506136666000830184613263565b92915050565b6000613676613687565b9050613682828261391d565b919050565b6000604051905090565b600067ffffffffffffffff8211156136ac576136ab613a55565b5b6136b582613a84565b9050602081019050919050565b600067ffffffffffffffff8211156136dd576136dc613a55565b5b6136e682613a84565b9050602081019050919050565b6000819050602082019050919050565b600081519050919050565b600081519050919050565b600081519050919050565b6000602082019050919050565b600082825260208201905092915050565b600082825260208201905092915050565b600081905092915050565b600082825260208201905092915050565b600081905092915050565b60006137858261389f565b91506137908361389f565b9250827fffffffffffffffffffffffffffffffffffffffffffffffffffffffffffffffff038211156137c5576137c46139c8565b5b828201905092915050565b60006137db8261389f565b91506137e68361389f565b9250826137f6576137f56139f7565b5b828204905092915050565b600061380c8261389f565b91506138178361389f565b92508282101561382a576138296139c8565b5b828203905092915050565b60006138408261387f565b9050919050565b60008115159050919050565b60007fffffffff0000000000000000000000000000000000000000000000000000000082169050919050565b600073ffffffffffffffffffffffffffffffffffffffff82169050919050565b6000819050919050565b82818337600083830152505050565b60005b838110156138d65780820151818401526020810190506138bb565b838111156138e5576000848401525b50505050565b6000600282049050600182168061390357607f821691505b6020821081141561391757613916613a26565b5b50919050565b61392682613a84565b810181811067ffffffffffffffff8211171561394557613944613a55565b5b80604052505050565b60006139598261389f565b91507fffffffffffffffffffffffffffffffffffffffffffffffffffffffffffffffff82141561398c5761398b6139c8565b5b600182019050919050565b60006139a28261389f565b91506139ad8361389f565b9250826139bd576139bc6139f7565b5b828206905092915050565b7f4e487b7100000000000000000000000000000000000000000000000000000000600052601160045260246000fd5b7f4e487b7100000000000000000000000000000000000000000000000000000000600052601260045260246000fd5b7f4e487b7100000000000000000000000000000000000000000000000000000000600052602260045260246000fd5b7f4e487b7100000000000000000000000000000000000000000000000000000000600052604160045260246000fd5b6000601f19601f8301169050919050565b7f4e6f7420656e6f756768204e465473206c65667420746f207265736572766500600082015250565b7f455243373231456e756d657261626c653a206f776e657220696e646578206f7560008201527f74206f6620626f756e6473000000000000000000000000000000000000000000602082015250565b7f4552433732313a207472616e7366657220746f206e6f6e20455243373231526560008201527f63656976657220696d706c656d656e7465720000000000000000000000000000602082015250565b7f4f776e61626c653a206e6577206f776e657220697320746865207a65726f206160008201527f6464726573730000000000000000000000000000000000000000000000000000602082015250565b7f4552433732313a207472616e736665722066726f6d20696e636f72726563742060008201527f6f776e6572000000000000000000000000000000000000000000000000000000602082015250565b7f4552433732313a20746f6b656e20616c7265616479206d696e74656400000000600082015250565b7f4552433732313a207472616e7366657220746f20746865207a65726f2061646460008201527f7265737300000000000000000000000000000000000000000000000000000000602082015250565b7f4552433732313a20617070726f766520746f2063616c6c657200000000000000600082015250565b7f4e6f7420656e6f756768204e465473206c656674210000000000000000000000600082015250565b7f43616e6e6f74206d696e7420737065636966696564206e756d626572206f662060008201527f4e4654732e000000000000000000000000000000000000000000000000000000602082015250565b7f4552433732313a206f70657261746f7220717565727920666f72206e6f6e657860008201527f697374656e7420746f6b656e0000000000000000000000000000000000000000602082015250565b7f4552433732313a20617070726f76652063616c6c6572206973206e6f74206f7760008201527f6e6572206e6f7220617070726f76656420666f7220616c6c0000000000000000602082015250565b7f4552433732313a2062616c616e636520717565727920666f7220746865207a6560008201527f726f206164647265737300000000000000000000000000000000000000000000602082015250565b7f4552433732313a206f776e657220717565727920666f72206e6f6e657869737460008201527f656e7420746f6b656e0000000000000000000000000000000000000000000000602082015250565b7f4552433732313a206d696e7420746f20746865207a65726f2061646472657373600082015250565b7f4e6f206574686572206c65667420746f20776974686472617700000000000000600082015250565b7f4552433732313a20617070726f76656420717565727920666f72206e6f6e657860008201527f697374656e7420746f6b656e0000000000000000000000000000000000000000602082015250565b7f4f776e61626c653a2063616c6c6572206973206e6f7420746865206f776e6572600082015250565b7f4552433732314d657461646174613a2055524920717565727920666f72206e6f60008201527f6e6578697374656e7420746f6b656e0000000000000000000000000000000000602082015250565b7f4552433732313a20617070726f76616c20746f2063757272656e74206f776e6560008201527f7200000000000000000000000000000000000000000000000000000000000000602082015250565b50565b7f5472616e73666572206661696c65642e00000000000000000000000000000000600082015250565b7f4552433732313a207472616e736665722063616c6c6572206973206e6f74206f60008201527f776e6572206e6f7220617070726f766564000000000000000000000000000000602082015250565b7f455243373231456e756d657261626c653a20676c6f62616c20696e646578206f60008201527f7574206f6620626f756e64730000000000000000000000000000000000000000602082015250565b61408a81613835565b811461409557600080fd5b50565b6140a181613847565b81146140ac57600080fd5b50565b6140b881613853565b81146140c357600080fd5b50565b6140cf8161389f565b81146140da57600080fd5b5056fea26469706673582212206ff7b1889af2f204116a560c59b10152bd700e665df355ae2d5511467973a8a064736f6c63430008040033",
  "linkReferences": {},
  "deployedLinkReferences": {}
}