{
  "_format": "hh-sol-artifact-1",
  "contractName": "ArkaniaNfts",
  "sourceName": "contracts/arkaniaNfts.sol",
  "abi": [
    {
      "inputs": [
        {
          "internalType": "string",
          "name": "baseURI",
          "type": "string"
        },
        {
          "internalType": "uint96",
          "name": "_royaltyFeesInBips",
          "type": "uint96"
        },
        {
          "internalType": "string",
          "name": "_contractURI",
          "type": "string"
        },
        {
          "internalType": "address payable",
          "name": "_payments",
          "type": "address"
        }
      ],
      "stateMutability": "nonpayable",
      "type": "constructor"
    },
    {
      "anonymous": false,
      "inputs": [
        {
          "indexed": true,
          "internalType": "address",
          "name": "owner",
          "type": "address"
        },
        {
          "indexed": true,
          "internalType": "address",
          "name": "approved",
          "type": "address"
        },
        {
          "indexed": true,
          "internalType": "uint256",
          "name": "tokenId",
          "type": "uint256"
        }
      ],
      "name": "Approval",
      "type": "event"
    },
    {
      "anonymous": false,
      "inputs": [
        {
          "indexed": true,
          "internalType": "address",
          "name": "owner",
          "type": "address"
        },
        {
          "indexed": true,
          "internalType": "address",
          "name": "operator",
          "type": "address"
        },
        {
          "indexed": false,
          "internalType": "bool",
          "name": "approved",
          "type": "bool"
        }
      ],
      "name": "ApprovalForAll",
      "type": "event"
    },
    {
      "anonymous": false,
      "inputs": [
        {
          "indexed": true,
          "internalType": "address",
          "name": "previousOwner",
          "type": "address"
        },
        {
          "indexed": true,
          "internalType": "address",
          "name": "newOwner",
          "type": "address"
        }
      ],
      "name": "OwnershipTransferred",
      "type": "event"
    },
    {
      "anonymous": false,
      "inputs": [
        {
          "indexed": true,
          "internalType": "address",
          "name": "from",
          "type": "address"
        },
        {
          "indexed": true,
          "internalType": "address",
          "name": "to",
          "type": "address"
        },
        {
          "indexed": true,
          "internalType": "uint256",
          "name": "tokenId",
          "type": "uint256"
        }
      ],
      "name": "Transfer",
      "type": "event"
    },
    {
      "inputs": [],
      "name": "MAX_SUPPLY",
      "outputs": [
        {
          "internalType": "uint256",
          "name": "",
          "type": "uint256"
        }
      ],
      "stateMutability": "view",
      "type": "function"
    },
    {
      "inputs": [],
      "name": "PRICE",
      "outputs": [
        {
          "internalType": "uint256",
          "name": "",
          "type": "uint256"
        }
      ],
      "stateMutability": "view",
      "type": "function"
    },
    {
      "inputs": [
        {
          "internalType": "address",
          "name": "to",
          "type": "address"
        },
        {
          "internalType": "uint256",
          "name": "tokenId",
          "type": "uint256"
        }
      ],
      "name": "approve",
      "outputs": [],
      "stateMutability": "nonpayable",
      "type": "function"
    },
    {
      "inputs": [
        {
          "internalType": "address",
          "name": "owner",
          "type": "address"
        }
      ],
      "name": "balanceOf",
      "outputs": [
        {
          "internalType": "uint256",
          "name": "",
          "type": "uint256"
        }
      ],
      "stateMutability": "view",
      "type": "function"
    },
    {
      "inputs": [],
      "name": "baseTokenURI",
      "outputs": [
        {
          "internalType": "string",
          "name": "",
          "type": "string"
        }
      ],
      "stateMutability": "view",
      "type": "function"
    },
    {
      "inputs": [],
      "name": "contractURI",
      "outputs": [
        {
          "internalType": "string",
          "name": "",
          "type": "string"
        }
      ],
      "stateMutability": "view",
      "type": "function"
    },
    {
      "inputs": [
        {
          "internalType": "uint256",
          "name": "tokenId",
          "type": "uint256"
        }
      ],
      "name": "getApproved",
      "outputs": [
        {
          "internalType": "address",
          "name": "",
          "type": "address"
        }
      ],
      "stateMutability": "view",
      "type": "function"
    },
    {
      "inputs": [
        {
          "internalType": "address",
          "name": "owner",
          "type": "address"
        },
        {
          "internalType": "address",
          "name": "operator",
          "type": "address"
        }
      ],
      "name": "isApprovedForAll",
      "outputs": [
        {
          "internalType": "bool",
          "name": "",
          "type": "bool"
        }
      ],
      "stateMutability": "view",
      "type": "function"
    },
    {
      "inputs": [],
      "name": "launchProject",
      "outputs": [],
      "stateMutability": "nonpayable",
      "type": "function"
    },
    {
      "inputs": [],
      "name": "mint",
      "outputs": [],
      "stateMutability": "payable",
      "type": "function"
    },
    {
      "inputs": [],
      "name": "name",
      "outputs": [
        {
          "internalType": "string",
          "name": "",
          "type": "string"
        }
      ],
      "stateMutability": "view",
      "type": "function"
    },
    {
      "inputs": [],
      "name": "owner",
      "outputs": [
        {
          "internalType": "address",
          "name": "",
          "type": "address"
        }
      ],
      "stateMutability": "view",
      "type": "function"
    },
    {
      "inputs": [
        {
          "internalType": "uint256",
          "name": "tokenId",
          "type": "uint256"
        }
      ],
      "name": "ownerOf",
      "outputs": [
        {
          "internalType": "address",
          "name": "",
          "type": "address"
        }
      ],
      "stateMutability": "view",
      "type": "function"
    },
    {
      "inputs": [],
      "name": "payments",
      "outputs": [
        {
          "internalType": "address payable",
          "name": "",
          "type": "address"
        }
      ],
      "stateMutability": "view",
      "type": "function"
    },
    {
      "inputs": [],
      "name": "projectLaunched",
      "outputs": [
        {
          "internalType": "bool",
          "name": "",
          "type": "bool"
        }
      ],
      "stateMutability": "view",
      "type": "function"
    },
    {
      "inputs": [],
      "name": "renounceOwnership",
      "outputs": [],
      "stateMutability": "nonpayable",
      "type": "function"
    },
    {
      "inputs": [
        {
          "internalType": "uint256",
          "name": "_tokenId",
          "type": "uint256"
        },
        {
          "internalType": "uint256",
          "name": "_salePrice",
          "type": "uint256"
        }
      ],
      "name": "royaltyInfo",
      "outputs": [
        {
          "internalType": "address",
          "name": "",
          "type": "address"
        },
        {
          "internalType": "uint256",
          "name": "",
          "type": "uint256"
        }
      ],
      "stateMutability": "view",
      "type": "function"
    },
    {
      "inputs": [
        {
          "internalType": "address",
          "name": "from",
          "type": "address"
        },
        {
          "internalType": "address",
          "name": "to",
          "type": "address"
        },
        {
          "internalType": "uint256",
          "name": "tokenId",
          "type": "uint256"
        }
      ],
      "name": "safeTransferFrom",
      "outputs": [],
      "stateMutability": "nonpayable",
      "type": "function"
    },
    {
      "inputs": [
        {
          "internalType": "address",
          "name": "from",
          "type": "address"
        },
        {
          "internalType": "address",
          "name": "to",
          "type": "address"
        },
        {
          "internalType": "uint256",
          "name": "tokenId",
          "type": "uint256"
        },
        {
          "internalType": "bytes",
          "name": "_data",
          "type": "bytes"
        }
      ],
      "name": "safeTransferFrom",
      "outputs": [],
      "stateMutability": "nonpayable",
      "type": "function"
    },
    {
      "inputs": [
        {
          "internalType": "address",
          "name": "operator",
          "type": "address"
        },
        {
          "internalType": "bool",
          "name": "approved",
          "type": "bool"
        }
      ],
      "name": "setApprovalForAll",
      "outputs": [],
      "stateMutability": "nonpayable",
      "type": "function"
    },
    {
      "inputs": [
        {
          "internalType": "string",
          "name": "_baseTokenURI",
          "type": "string"
        }
      ],
      "name": "setBaseURI",
      "outputs": [],
      "stateMutability": "nonpayable",
      "type": "function"
    },
    {
      "inputs": [
        {
          "internalType": "string",
          "name": "_contractURI",
          "type": "string"
        }
      ],
      "name": "setContractURI",
      "outputs": [],
      "stateMutability": "nonpayable",
      "type": "function"
    },
    {
      "inputs": [
        {
          "internalType": "address",
          "name": "_receiver",
          "type": "address"
        },
        {
          "internalType": "uint96",
          "name": "_royaltyFeesInBips",
          "type": "uint96"
        }
      ],
      "name": "setRoyaltyInfo",
      "outputs": [],
      "stateMutability": "nonpayable",
      "type": "function"
    },
    {
      "inputs": [
        {
          "internalType": "bytes4",
          "name": "interfaceId",
          "type": "bytes4"
        }
      ],
      "name": "supportsInterface",
      "outputs": [
        {
          "internalType": "bool",
          "name": "",
          "type": "bool"
        }
      ],
      "stateMutability": "view",
      "type": "function"
    },
    {
      "inputs": [],
      "name": "symbol",
      "outputs": [
        {
          "internalType": "string",
          "name": "",
          "type": "string"
        }
      ],
      "stateMutability": "view",
      "type": "function"
    },
    {
      "inputs": [
        {
          "internalType": "uint256",
          "name": "index",
          "type": "uint256"
        }
      ],
      "name": "tokenByIndex",
      "outputs": [
        {
          "internalType": "uint256",
          "name": "",
          "type": "uint256"
        }
      ],
      "stateMutability": "view",
      "type": "function"
    },
    {
      "inputs": [
        {
          "internalType": "address",
          "name": "owner",
          "type": "address"
        },
        {
          "internalType": "uint256",
          "name": "index",
          "type": "uint256"
        }
      ],
      "name": "tokenOfOwnerByIndex",
      "outputs": [
        {
          "internalType": "uint256",
          "name": "",
          "type": "uint256"
        }
      ],
      "stateMutability": "view",
      "type": "function"
    },
    {
      "inputs": [
        {
          "internalType": "uint256",
          "name": "tokenId",
          "type": "uint256"
        }
      ],
      "name": "tokenURI",
      "outputs": [
        {
          "internalType": "string",
          "name": "",
          "type": "string"
        }
      ],
      "stateMutability": "view",
      "type": "function"
    },
    {
      "inputs": [],
      "name": "totalSupply",
      "outputs": [
        {
          "internalType": "uint256",
          "name": "",
          "type": "uint256"
        }
      ],
      "stateMutability": "view",
      "type": "function"
    },
    {
      "inputs": [
        {
          "internalType": "address",
          "name": "from",
          "type": "address"
        },
        {
          "internalType": "address",
          "name": "to",
          "type": "address"
        },
        {
          "internalType": "uint256",
          "name": "tokenId",
          "type": "uint256"
        }
      ],
      "name": "transferFrom",
      "outputs": [],
      "stateMutability": "nonpayable",
      "type": "function"
    },
    {
      "inputs": [
        {
          "internalType": "address",
          "name": "newOwner",
          "type": "address"
        }
      ],
      "name": "transferOwnership",
      "outputs": [],
      "stateMutability": "nonpayable",
      "type": "function"
    },
    {
      "inputs": [
        {
          "internalType": "address",
          "name": "",
          "type": "address"
        }
      ],
      "name": "walletMinted",
      "outputs": [
        {
          "internalType": "bool",
          "name": "",
          "type": "bool"
        }
      ],
      "stateMutability": "view",
      "type": "function"
    },
    {
      "inputs": [],
      "name": "withdraw",
      "outputs": [],
      "stateMutability": "payable",
      "type": "function"
    }
  ],
  "bytecode": "0x60806040523480156200001157600080fd5b506040516200560c3803806200560c8339818101604052810190620000379190620006c4565b6040518060400160405280600c81526020017f61726b616e6961204e66747300000000000000000000000000000000000000008152506040518060400160405280600381526020017f41524b00000000000000000000000000000000000000000000000000000000008152508160009080519060200190620000bb92919062000574565b508060019080519060200190620000d492919062000574565b505050620000f7620000eb6200017e60201b60201c565b6200018660201b60201c565b62000108846200024c60201b60201c565b81600e90805190602001906200012092919062000574565b50620001333384620002f760201b60201c565b80601060016101000a81548173ffffffffffffffffffffffffffffffffffffffff021916908373ffffffffffffffffffffffffffffffffffffffff1602179055505050505062000adf565b600033905090565b6000600c60009054906101000a900473ffffffffffffffffffffffffffffffffffffffff16905081600c60006101000a81548173ffffffffffffffffffffffffffffffffffffffff021916908373ffffffffffffffffffffffffffffffffffffffff1602179055508173ffffffffffffffffffffffffffffffffffffffff168173ffffffffffffffffffffffffffffffffffffffff167f8be0079c531659141344cd1fd0a4f28419497f9722a3daafe3b4186f6b6457e060405160405180910390a35050565b6200025c6200017e60201b60201c565b73ffffffffffffffffffffffffffffffffffffffff16620002826200039c60201b60201c565b73ffffffffffffffffffffffffffffffffffffffff1614620002db576040517f08c379a0000000000000000000000000000000000000000000000000000000008152600401620002d290620007d7565b60405180910390fd5b80600f9080519060200190620002f392919062000574565b5050565b620003076200017e60201b60201c565b73ffffffffffffffffffffffffffffffffffffffff166200032d6200039c60201b60201c565b73ffffffffffffffffffffffffffffffffffffffff161462000386576040517f08c379a00000000000000000000000000000000000000000000000000000000081526004016200037d90620007d7565b60405180910390fd5b620003988282620003c660201b60201c565b5050565b6000600c60009054906101000a900473ffffffffffffffffffffffffffffffffffffffff16905090565b620003d66200056a60201b60201c565b6bffffffffffffffffffffffff16816bffffffffffffffffffffffff16111562000437576040517f08c379a00000000000000000000000000000000000000000000000000000000081526004016200042e90620007f9565b60405180910390fd5b600073ffffffffffffffffffffffffffffffffffffffff168273ffffffffffffffffffffffffffffffffffffffff161415620004aa576040517f08c379a0000000000000000000000000000000000000000000000000000000008152600401620004a1906200081b565b60405180910390fd5b60405180604001604052808373ffffffffffffffffffffffffffffffffffffffff168152602001826bffffffffffffffffffffffff16815250600a60008201518160000160006101000a81548173ffffffffffffffffffffffffffffffffffffffff021916908373ffffffffffffffffffffffffffffffffffffffff16021790555060208201518160000160146101000a8154816bffffffffffffffffffffffff02191690836bffffffffffffffffffffffff1602179055509050505050565b6000612710905090565b82805462000582906200092f565b90600052602060002090601f016020900481019282620005a65760008555620005f2565b82601f10620005c157805160ff1916838001178555620005f2565b82800160010185558215620005f2579182015b82811115620005f1578251825591602001919060010190620005d4565b5b50905062000601919062000605565b5090565b5b808211156200062057600081600090555060010162000606565b5090565b60006200063b620006358462000866565b6200083d565b9050828152602081018484840111156200065457600080fd5b62000661848285620008f9565b509392505050565b6000815190506200067a8162000aab565b92915050565b600082601f8301126200069257600080fd5b8151620006a484826020860162000624565b91505092915050565b600081519050620006be8162000ac5565b92915050565b60008060008060808587031215620006db57600080fd5b600085015167ffffffffffffffff811115620006f657600080fd5b620007048782880162000680565b94505060206200071787828801620006ad565b935050604085015167ffffffffffffffff8111156200073557600080fd5b620007438782880162000680565b9250506060620007568782880162000669565b91505092959194509250565b6000620007716020836200089c565b91506200077e8262000a0a565b602082019050919050565b600062000798602a836200089c565b9150620007a58262000a33565b604082019050919050565b6000620007bf6019836200089c565b9150620007cc8262000a82565b602082019050919050565b60006020820190508181036000830152620007f28162000762565b9050919050565b60006020820190508181036000830152620008148162000789565b9050919050565b600060208201905081810360008301526200083681620007b0565b9050919050565b6000620008496200085c565b905062000857828262000965565b919050565b6000604051905090565b600067ffffffffffffffff821115620008845762000883620009ca565b5b6200088f82620009f9565b9050602081019050919050565b600082825260208201905092915050565b6000620008ba82620008c1565b9050919050565b600073ffffffffffffffffffffffffffffffffffffffff82169050919050565b60006bffffffffffffffffffffffff82169050919050565b60005b8381101562000919578082015181840152602081019050620008fc565b8381111562000929576000848401525b50505050565b600060028204905060018216806200094857607f821691505b602082108114156200095f576200095e6200099b565b5b50919050565b6200097082620009f9565b810181811067ffffffffffffffff82111715620009925762000991620009ca565b5b80604052505050565b7f4e487b7100000000000000000000000000000000000000000000000000000000600052602260045260246000fd5b7f4e487b7100000000000000000000000000000000000000000000000000000000600052604160045260246000fd5b6000601f19601f8301169050919050565b7f4f776e61626c653a2063616c6c6572206973206e6f7420746865206f776e6572600082015250565b7f455243323938313a20726f79616c7479206665652077696c6c2065786365656460008201527f2073616c65507269636500000000000000000000000000000000000000000000602082015250565b7f455243323938313a20696e76616c696420726563656976657200000000000000600082015250565b62000ab681620008ad565b811462000ac257600080fd5b50565b62000ad081620008e1565b811462000adc57600080fd5b50565b614b1d8062000aef6000396000f3fe6080604052600436106101ee5760003560e01c80636352211e1161010d578063a6d23e10116100a0578063d3738fc81161006f578063d3738fc8146106be578063d547cfb7146106fb578063e8a3d48514610726578063e985e9c514610751578063f2fde38b1461078e576101ee565b8063a6d23e1014610616578063b88d4fde14610641578063c68ece1d1461066a578063c87b56dd14610681576101ee565b80638da5cb5b116100dc5780638da5cb5b1461056e578063938e3d7b1461059957806395d89b41146105c2578063a22cb465146105ed576101ee565b80636352211e146104b257806370a08231146104ef578063715018a61461052c5780638d859f3e14610543576101ee565b80632a55205a116101855780633ccfd60b116101545780633ccfd60b1461041957806342842e0e146104235780634f6ccce71461044c57806355f804b314610489576101ee565b80632a55205a146103485780632c89752a146103865780632f745c59146103b157806332cb6b0c146103ee576101ee565b8063095ea7b3116101c1578063095ea7b3146102c15780631249c58b146102ea57806318160ddd146102f457806323b872dd1461031f576101ee565b806301ffc9a7146101f357806302fa7c471461023057806306fdde0314610259578063081812fc14610284575b600080fd5b3480156101ff57600080fd5b5061021a600480360381019061021591906134be565b6107b7565b6040516102279190613b92565b60405180910390f35b34801561023c57600080fd5b5061025760048036038101906102529190613482565b6107c9565b005b34801561026557600080fd5b5061026e610853565b60405161027b9190613bad565b60405180910390f35b34801561029057600080fd5b506102ab60048036038101906102a69190613596565b6108e5565b6040516102b89190613ae7565b60405180910390f35b3480156102cd57600080fd5b506102e860048036038101906102e39190613446565b61096a565b005b6102f2610a82565b005b34801561030057600080fd5b50610309610c70565b6040516103169190613f2f565b60405180910390f35b34801561032b57600080fd5b5061034660048036038101906103419190613340565b610c7d565b005b34801561035457600080fd5b5061036f600480360381019061036a91906135bf565b610cdd565b60405161037d929190613b69565b60405180910390f35b34801561039257600080fd5b5061039b610ec8565b6040516103a89190613b92565b60405180910390f35b3480156103bd57600080fd5b506103d860048036038101906103d39190613446565b610edb565b6040516103e59190613f2f565b60405180910390f35b3480156103fa57600080fd5b50610403610f80565b6040516104109190613f2f565b60405180910390f35b610421610f85565b005b34801561042f57600080fd5b5061044a60048036038101906104459190613340565b61109f565b005b34801561045857600080fd5b50610473600480360381019061046e9190613596565b6110bf565b6040516104809190613f2f565b60405180910390f35b34801561049557600080fd5b506104b060048036038101906104ab9190613555565b611156565b005b3480156104be57600080fd5b506104d960048036038101906104d49190613596565b6111ec565b6040516104e69190613ae7565b60405180910390f35b3480156104fb57600080fd5b50610516600480360381019061051191906132db565b61129e565b6040516105239190613f2f565b60405180910390f35b34801561053857600080fd5b50610541611356565b005b34801561054f57600080fd5b506105586113de565b6040516105659190613f2f565b60405180910390f35b34801561057a57600080fd5b506105836113e9565b6040516105909190613ae7565b60405180910390f35b3480156105a557600080fd5b506105c060048036038101906105bb9190613510565b611413565b005b3480156105ce57600080fd5b506105d76114a5565b6040516105e49190613bad565b60405180910390f35b3480156105f957600080fd5b50610614600480360381019061060f919061340a565b611537565b005b34801561062257600080fd5b5061062b61154d565b6040516106389190613b02565b60405180910390f35b34801561064d57600080fd5b506106686004803603810190610663919061338f565b611573565b005b34801561067657600080fd5b5061067f6115d5565b005b34801561068d57600080fd5b506106a860048036038101906106a39190613596565b6116c4565b6040516106b59190613bad565b60405180910390f35b3480156106ca57600080fd5b506106e560048036038101906106e091906132db565b61176b565b6040516106f29190613b92565b60405180910390f35b34801561070757600080fd5b5061071061178b565b60405161071d9190613bad565b60405180910390f35b34801561073257600080fd5b5061073b611819565b6040516107489190613bad565b60405180910390f35b34801561075d57600080fd5b5061077860048036038101906107739190613304565b6118a7565b6040516107859190613b92565b60405180910390f35b34801561079a57600080fd5b506107b560048036038101906107b091906132db565b61193b565b005b60006107c282611a33565b9050919050565b6107d1611aad565b73ffffffffffffffffffffffffffffffffffffffff166107ef6113e9565b73ffffffffffffffffffffffffffffffffffffffff1614610845576040517f08c379a000000000000000000000000000000000000000000000000000000000815260040161083c90613def565b60405180910390fd5b61084f8282611ab5565b5050565b60606000805461086290614214565b80601f016020809104026020016040519081016040528092919081815260200182805461088e90614214565b80156108db5780601f106108b0576101008083540402835291602001916108db565b820191906000526020600020905b8154815290600101906020018083116108be57829003601f168201915b5050505050905090565b60006108f082611c4b565b61092f576040517f08c379a000000000000000000000000000000000000000000000000000000000815260040161092690613dcf565b60405180910390fd5b6004600083815260200190815260200160002060009054906101000a900473ffffffffffffffffffffffffffffffffffffffff169050919050565b6000610975826111ec565b90508073ffffffffffffffffffffffffffffffffffffffff168373ffffffffffffffffffffffffffffffffffffffff1614156109e6576040517f08c379a00000000000000000000000000000000000000000000000000000000081526004016109dd90613e4f565b60405180910390fd5b8073ffffffffffffffffffffffffffffffffffffffff16610a05611aad565b73ffffffffffffffffffffffffffffffffffffffff161480610a345750610a3381610a2e611aad565b6118a7565b5b610a73576040517f08c379a0000000000000000000000000000000000000000000000000000000008152600401610a6a90613d2f565b60405180910390fd5b610a7d8383611cb7565b505050565b601060009054906101000a900460ff16610ad1576040517f08c379a0000000000000000000000000000000000000000000000000000000008152600401610ac890613d0f565b60405180910390fd5b60001515601160003373ffffffffffffffffffffffffffffffffffffffff1673ffffffffffffffffffffffffffffffffffffffff16815260200190815260200160002060009054906101000a900460ff16151514610b64576040517f08c379a0000000000000000000000000000000000000000000000000000000008152600401610b5b90613ccf565b60405180910390fd5b66038d7ea4c680003414610bad576040517f08c379a0000000000000000000000000000000000000000000000000000000008152600401610ba490613eef565b60405180910390fd5b6064610bb9600d611d70565b10610bf9576040517f08c379a0000000000000000000000000000000000000000000000000000000008152600401610bf090613c6f565b60405180910390fd5b6001601160003373ffffffffffffffffffffffffffffffffffffffff1673ffffffffffffffffffffffffffffffffffffffff16815260200190815260200160002060006101000a81548160ff021916908315150217905550610c5b600d611d7e565b610c6e33610c69600d611d70565b611d94565b565b6000600880549050905090565b610c8e610c88611aad565b82611db2565b610ccd576040517f08c379a0000000000000000000000000000000000000000000000000000000008152600401610cc490613e8f565b60405180910390fd5b610cd8838383611e90565b505050565b6000806000600b60008681526020019081526020016000206040518060400160405290816000820160009054906101000a900473ffffffffffffffffffffffffffffffffffffffff1673ffffffffffffffffffffffffffffffffffffffff1673ffffffffffffffffffffffffffffffffffffffff1681526020016000820160149054906101000a90046bffffffffffffffffffffffff166bffffffffffffffffffffffff166bffffffffffffffffffffffff16815250509050600073ffffffffffffffffffffffffffffffffffffffff16816000015173ffffffffffffffffffffffffffffffffffffffff161415610e7357600a6040518060400160405290816000820160009054906101000a900473ffffffffffffffffffffffffffffffffffffffff1673ffffffffffffffffffffffffffffffffffffffff1673ffffffffffffffffffffffffffffffffffffffff1681526020016000820160149054906101000a90046bffffffffffffffffffffffff166bffffffffffffffffffffffff166bffffffffffffffffffffffff168152505090505b6000610e7d6120f7565b6bffffffffffffffffffffffff1682602001516bffffffffffffffffffffffff1686610ea991906140a6565b610eb39190614075565b90508160000151819350935050509250929050565b601060009054906101000a900460ff1681565b6000610ee68361129e565b8210610f27576040517f08c379a0000000000000000000000000000000000000000000000000000000008152600401610f1e90613bcf565b60405180910390fd5b600660008473ffffffffffffffffffffffffffffffffffffffff1673ffffffffffffffffffffffffffffffffffffffff168152602001908152602001600020600083815260200190815260200160002054905092915050565b606481565b600047905060008111610fcd576040517f08c379a0000000000000000000000000000000000000000000000000000000008152600401610fc490613daf565b60405180910390fd5b6000601060019054906101000a900473ffffffffffffffffffffffffffffffffffffffff1673ffffffffffffffffffffffffffffffffffffffff168260405161101590613ad2565b60006040518083038185875af1925050503d8060008114611052576040519150601f19603f3d011682016040523d82523d6000602084013e611057565b606091505b505090508061109b576040517f08c379a000000000000000000000000000000000000000000000000000000000815260040161109290613e6f565b60405180910390fd5b5050565b6110ba83838360405180602001604052806000815250611573565b505050565b60006110c9610c70565b821061110a576040517f08c379a000000000000000000000000000000000000000000000000000000000815260040161110190613eaf565b60405180910390fd5b60088281548110611144577f4e487b7100000000000000000000000000000000000000000000000000000000600052603260045260246000fd5b90600052602060002001549050919050565b61115e611aad565b73ffffffffffffffffffffffffffffffffffffffff1661117c6113e9565b73ffffffffffffffffffffffffffffffffffffffff16146111d2576040517f08c379a00000000000000000000000000000000000000000000000000000000081526004016111c990613def565b60405180910390fd5b80600f90805190602001906111e892919061301a565b5050565b6000806002600084815260200190815260200160002060009054906101000a900473ffffffffffffffffffffffffffffffffffffffff169050600073ffffffffffffffffffffffffffffffffffffffff168173ffffffffffffffffffffffffffffffffffffffff161415611295576040517f08c379a000000000000000000000000000000000000000000000000000000000815260040161128c90613d6f565b60405180910390fd5b80915050919050565b60008073ffffffffffffffffffffffffffffffffffffffff168273ffffffffffffffffffffffffffffffffffffffff16141561130f576040517f08c379a000000000000000000000000000000000000000000000000000000000815260040161130690613d4f565b60405180910390fd5b600360008373ffffffffffffffffffffffffffffffffffffffff1673ffffffffffffffffffffffffffffffffffffffff168152602001908152602001600020549050919050565b61135e611aad565b73ffffffffffffffffffffffffffffffffffffffff1661137c6113e9565b73ffffffffffffffffffffffffffffffffffffffff16146113d2576040517f08c379a00000000000000000000000000000000000000000000000000000000081526004016113c990613def565b60405180910390fd5b6113dc6000612101565b565b66038d7ea4c6800081565b6000600c60009054906101000a900473ffffffffffffffffffffffffffffffffffffffff16905090565b61141b611aad565b73ffffffffffffffffffffffffffffffffffffffff166114396113e9565b73ffffffffffffffffffffffffffffffffffffffff161461148f576040517f08c379a000000000000000000000000000000000000000000000000000000000815260040161148690613def565b60405180910390fd5b8181600e91906114a09291906130a0565b505050565b6060600180546114b490614214565b80601f01602080910402602001604051908101604052809291908181526020018280546114e090614214565b801561152d5780601f106115025761010080835404028352916020019161152d565b820191906000526020600020905b81548152906001019060200180831161151057829003601f168201915b5050505050905090565b611549611542611aad565b83836121c7565b5050565b601060019054906101000a900473ffffffffffffffffffffffffffffffffffffffff1681565b61158461157e611aad565b83611db2565b6115c3576040517f08c379a00000000000000000000000000000000000000000000000000000000081526004016115ba90613e8f565b60405180910390fd5b6115cf84848484612334565b50505050565b6115dd611aad565b73ffffffffffffffffffffffffffffffffffffffff166115fb6113e9565b73ffffffffffffffffffffffffffffffffffffffff1614611651576040517f08c379a000000000000000000000000000000000000000000000000000000000815260040161164890613def565b60405180910390fd5b60001515601060009054906101000a900460ff161515146116a7576040517f08c379a000000000000000000000000000000000000000000000000000000000815260040161169e90613e2f565b60405180910390fd5b6001601060006101000a81548160ff021916908315150217905550565b60606116cf82611c4b565b61170e576040517f08c379a000000000000000000000000000000000000000000000000000000000815260040161170590613e0f565b60405180910390fd5b6000611718612390565b905060008151116117385760405180602001604052806000815250611763565b8061174284612422565b604051602001611753929190613aae565b6040516020818303038152906040525b915050919050565b60116020528060005260406000206000915054906101000a900460ff1681565b600f805461179890614214565b80601f01602080910402602001604051908101604052809291908181526020018280546117c490614214565b80156118115780601f106117e657610100808354040283529160200191611811565b820191906000526020600020905b8154815290600101906020018083116117f457829003601f168201915b505050505081565b600e805461182690614214565b80601f016020809104026020016040519081016040528092919081815260200182805461185290614214565b801561189f5780601f106118745761010080835404028352916020019161189f565b820191906000526020600020905b81548152906001019060200180831161188257829003601f168201915b505050505081565b6000600560008473ffffffffffffffffffffffffffffffffffffffff1673ffffffffffffffffffffffffffffffffffffffff16815260200190815260200160002060008373ffffffffffffffffffffffffffffffffffffffff1673ffffffffffffffffffffffffffffffffffffffff16815260200190815260200160002060009054906101000a900460ff16905092915050565b611943611aad565b73ffffffffffffffffffffffffffffffffffffffff166119616113e9565b73ffffffffffffffffffffffffffffffffffffffff16146119b7576040517f08c379a00000000000000000000000000000000000000000000000000000000081526004016119ae90613def565b60405180910390fd5b600073ffffffffffffffffffffffffffffffffffffffff168173ffffffffffffffffffffffffffffffffffffffff161415611a27576040517f08c379a0000000000000000000000000000000000000000000000000000000008152600401611a1e90613c0f565b60405180910390fd5b611a3081612101565b50565b60007f2a55205a000000000000000000000000000000000000000000000000000000007bffffffffffffffffffffffffffffffffffffffffffffffffffffffff1916827bffffffffffffffffffffffffffffffffffffffffffffffffffffffff19161480611aa65750611aa5826125cf565b5b9050919050565b600033905090565b611abd6120f7565b6bffffffffffffffffffffffff16816bffffffffffffffffffffffff161115611b1b576040517f08c379a0000000000000000000000000000000000000000000000000000000008152600401611b1290613ecf565b60405180910390fd5b600073ffffffffffffffffffffffffffffffffffffffff168273ffffffffffffffffffffffffffffffffffffffff161415611b8b576040517f08c379a0000000000000000000000000000000000000000000000000000000008152600401611b8290613f0f565b60405180910390fd5b60405180604001604052808373ffffffffffffffffffffffffffffffffffffffff168152602001826bffffffffffffffffffffffff16815250600a60008201518160000160006101000a81548173ffffffffffffffffffffffffffffffffffffffff021916908373ffffffffffffffffffffffffffffffffffffffff16021790555060208201518160000160146101000a8154816bffffffffffffffffffffffff02191690836bffffffffffffffffffffffff1602179055509050505050565b60008073ffffffffffffffffffffffffffffffffffffffff166002600084815260200190815260200160002060009054906101000a900473ffffffffffffffffffffffffffffffffffffffff1673ffffffffffffffffffffffffffffffffffffffff1614159050919050565b816004600083815260200190815260200160002060006101000a81548173ffffffffffffffffffffffffffffffffffffffff021916908373ffffffffffffffffffffffffffffffffffffffff160217905550808273ffffffffffffffffffffffffffffffffffffffff16611d2a836111ec565b73ffffffffffffffffffffffffffffffffffffffff167f8c5be1e5ebec7d5bd14f71427d1e84f3dd0314c0f7b2291e5b200ac8c7c3b92560405160405180910390a45050565b600081600001549050919050565b6001816000016000828254019250508190555050565b611dae828260405180602001604052806000815250612649565b5050565b6000611dbd82611c4b565b611dfc576040517f08c379a0000000000000000000000000000000000000000000000000000000008152600401611df390613cef565b60405180910390fd5b6000611e07836111ec565b90508073ffffffffffffffffffffffffffffffffffffffff168473ffffffffffffffffffffffffffffffffffffffff161480611e7657508373ffffffffffffffffffffffffffffffffffffffff16611e5e846108e5565b73ffffffffffffffffffffffffffffffffffffffff16145b80611e875750611e8681856118a7565b5b91505092915050565b8273ffffffffffffffffffffffffffffffffffffffff16611eb0826111ec565b73ffffffffffffffffffffffffffffffffffffffff1614611f06576040517f08c379a0000000000000000000000000000000000000000000000000000000008152600401611efd90613c2f565b60405180910390fd5b600073ffffffffffffffffffffffffffffffffffffffff168273ffffffffffffffffffffffffffffffffffffffff161415611f76576040517f08c379a0000000000000000000000000000000000000000000000000000000008152600401611f6d90613c8f565b60405180910390fd5b611f818383836126a4565b611f8c600082611cb7565b6001600360008573ffffffffffffffffffffffffffffffffffffffff1673ffffffffffffffffffffffffffffffffffffffff1681526020019081526020016000206000828254611fdc9190614100565b925050819055506001600360008473ffffffffffffffffffffffffffffffffffffffff1673ffffffffffffffffffffffffffffffffffffffff1681526020019081526020016000206000828254612033919061401f565b92505081905550816002600083815260200190815260200160002060006101000a81548173ffffffffffffffffffffffffffffffffffffffff021916908373ffffffffffffffffffffffffffffffffffffffff160217905550808273ffffffffffffffffffffffffffffffffffffffff168473ffffffffffffffffffffffffffffffffffffffff167fddf252ad1be2c89b69c2b068fc378daa952ba7f163c4a11628f55a4df523b3ef60405160405180910390a46120f28383836127b8565b505050565b6000612710905090565b6000600c60009054906101000a900473ffffffffffffffffffffffffffffffffffffffff16905081600c60006101000a81548173ffffffffffffffffffffffffffffffffffffffff021916908373ffffffffffffffffffffffffffffffffffffffff1602179055508173ffffffffffffffffffffffffffffffffffffffff168173ffffffffffffffffffffffffffffffffffffffff167f8be0079c531659141344cd1fd0a4f28419497f9722a3daafe3b4186f6b6457e060405160405180910390a35050565b8173ffffffffffffffffffffffffffffffffffffffff168373ffffffffffffffffffffffffffffffffffffffff161415612236576040517f08c379a000000000000000000000000000000000000000000000000000000000815260040161222d90613caf565b60405180910390fd5b80600560008573ffffffffffffffffffffffffffffffffffffffff1673ffffffffffffffffffffffffffffffffffffffff16815260200190815260200160002060008473ffffffffffffffffffffffffffffffffffffffff1673ffffffffffffffffffffffffffffffffffffffff16815260200190815260200160002060006101000a81548160ff0219169083151502179055508173ffffffffffffffffffffffffffffffffffffffff168373ffffffffffffffffffffffffffffffffffffffff167f17307eab39ab6107e8899845ad3d59bd9653f200f220920489ca2b5937696c31836040516123279190613b92565b60405180910390a3505050565b61233f848484611e90565b61234b848484846127bd565b61238a576040517f08c379a000000000000000000000000000000000000000000000000000000000815260040161238190613bef565b60405180910390fd5b50505050565b6060600f805461239f90614214565b80601f01602080910402602001604051908101604052809291908181526020018280546123cb90614214565b80156124185780601f106123ed57610100808354040283529160200191612418565b820191906000526020600020905b8154815290600101906020018083116123fb57829003601f168201915b5050505050905090565b6060600082141561246a576040518060400160405280600181526020017f300000000000000000000000000000000000000000000000000000000000000081525090506125ca565b600082905060005b6000821461249c57808061248590614277565b915050600a826124959190614075565b9150612472565b60008167ffffffffffffffff8111156124de577f4e487b7100000000000000000000000000000000000000000000000000000000600052604160045260246000fd5b6040519080825280601f01601f1916602001820160405280156125105781602001600182028036833780820191505090505b5090505b600085146125c3576001826125299190614100565b9150600a8561253891906142c0565b6030612544919061401f565b60f81b818381518110612580577f4e487b7100000000000000000000000000000000000000000000000000000000600052603260045260246000fd5b60200101907effffffffffffffffffffffffffffffffffffffffffffffffffffffffffffff1916908160001a905350600a856125bc9190614075565b9450612514565b8093505050505b919050565b60007f780e9d63000000000000000000000000000000000000000000000000000000007bffffffffffffffffffffffffffffffffffffffffffffffffffffffff1916827bffffffffffffffffffffffffffffffffffffffffffffffffffffffff19161480612642575061264182612954565b5b9050919050565b6126538383612a36565b61266060008484846127bd565b61269f576040517f08c379a000000000000000000000000000000000000000000000000000000000815260040161269690613bef565b60405180910390fd5b505050565b6126af838383612c10565b600073ffffffffffffffffffffffffffffffffffffffff168373ffffffffffffffffffffffffffffffffffffffff1614156126f2576126ed81612c15565b612731565b8173ffffffffffffffffffffffffffffffffffffffff168373ffffffffffffffffffffffffffffffffffffffff16146127305761272f8382612c5e565b5b5b600073ffffffffffffffffffffffffffffffffffffffff168273ffffffffffffffffffffffffffffffffffffffff1614156127745761276f81612dcb565b6127b3565b8273ffffffffffffffffffffffffffffffffffffffff168273ffffffffffffffffffffffffffffffffffffffff16146127b2576127b18282612f0e565b5b5b505050565b505050565b60006127de8473ffffffffffffffffffffffffffffffffffffffff16612f8d565b15612947578373ffffffffffffffffffffffffffffffffffffffff1663150b7a02612807611aad565b8786866040518563ffffffff1660e01b81526004016128299493929190613b1d565b602060405180830381600087803b15801561284357600080fd5b505af192505050801561287457506040513d601f19601f8201168201806040525081019061287191906134e7565b60015b6128f7573d80600081146128a4576040519150601f19603f3d011682016040523d82523d6000602084013e6128a9565b606091505b506000815114156128ef576040517f08c379a00000000000000000000000000000000000000000000000000000000081526004016128e690613bef565b60405180910390fd5b805181602001fd5b63150b7a0260e01b7bffffffffffffffffffffffffffffffffffffffffffffffffffffffff1916817bffffffffffffffffffffffffffffffffffffffffffffffffffffffff19161491505061294c565b600190505b949350505050565b60007f80ac58cd000000000000000000000000000000000000000000000000000000007bffffffffffffffffffffffffffffffffffffffffffffffffffffffff1916827bffffffffffffffffffffffffffffffffffffffffffffffffffffffff19161480612a1f57507f5b5e139f000000000000000000000000000000000000000000000000000000007bffffffffffffffffffffffffffffffffffffffffffffffffffffffff1916827bffffffffffffffffffffffffffffffffffffffffffffffffffffffff1916145b80612a2f5750612a2e82612fb0565b5b9050919050565b600073ffffffffffffffffffffffffffffffffffffffff168273ffffffffffffffffffffffffffffffffffffffff161415612aa6576040517f08c379a0000000000000000000000000000000000000000000000000000000008152600401612a9d90613d8f565b60405180910390fd5b612aaf81611c4b565b15612aef576040517f08c379a0000000000000000000000000000000000000000000000000000000008152600401612ae690613c4f565b60405180910390fd5b612afb600083836126a4565b6001600360008473ffffffffffffffffffffffffffffffffffffffff1673ffffffffffffffffffffffffffffffffffffffff1681526020019081526020016000206000828254612b4b919061401f565b92505081905550816002600083815260200190815260200160002060006101000a81548173ffffffffffffffffffffffffffffffffffffffff021916908373ffffffffffffffffffffffffffffffffffffffff160217905550808273ffffffffffffffffffffffffffffffffffffffff16600073ffffffffffffffffffffffffffffffffffffffff167fddf252ad1be2c89b69c2b068fc378daa952ba7f163c4a11628f55a4df523b3ef60405160405180910390a4612c0c600083836127b8565b5050565b505050565b6008805490506009600083815260200190815260200160002081905550600881908060018154018082558091505060019003906000526020600020016000909190919091505550565b60006001612c6b8461129e565b612c759190614100565b9050600060076000848152602001908152602001600020549050818114612d5a576000600660008673ffffffffffffffffffffffffffffffffffffffff1673ffffffffffffffffffffffffffffffffffffffff168152602001908152602001600020600084815260200190815260200160002054905080600660008773ffffffffffffffffffffffffffffffffffffffff1673ffffffffffffffffffffffffffffffffffffffff168152602001908152602001600020600084815260200190815260200160002081905550816007600083815260200190815260200160002081905550505b6007600084815260200190815260200160002060009055600660008573ffffffffffffffffffffffffffffffffffffffff1673ffffffffffffffffffffffffffffffffffffffff16815260200190815260200160002060008381526020019081526020016000206000905550505050565b60006001600880549050612ddf9190614100565b9050600060096000848152602001908152602001600020549050600060088381548110612e35577f4e487b7100000000000000000000000000000000000000000000000000000000600052603260045260246000fd5b906000526020600020015490508060088381548110612e7d577f4e487b7100000000000000000000000000000000000000000000000000000000600052603260045260246000fd5b906000526020600020018190555081600960008381526020019081526020016000208190555060096000858152602001908152602001600020600090556008805480612ef2577f4e487b7100000000000000000000000000000000000000000000000000000000600052603160045260246000fd5b6001900381819060005260206000200160009055905550505050565b6000612f198361129e565b905081600660008573ffffffffffffffffffffffffffffffffffffffff1673ffffffffffffffffffffffffffffffffffffffff168152602001908152602001600020600083815260200190815260200160002081905550806007600084815260200190815260200160002081905550505050565b6000808273ffffffffffffffffffffffffffffffffffffffff163b119050919050565b60007f01ffc9a7000000000000000000000000000000000000000000000000000000007bffffffffffffffffffffffffffffffffffffffffffffffffffffffff1916827bffffffffffffffffffffffffffffffffffffffffffffffffffffffff1916149050919050565b82805461302690614214565b90600052602060002090601f016020900481019282613048576000855561308f565b82601f1061306157805160ff191683800117855561308f565b8280016001018555821561308f579182015b8281111561308e578251825591602001919060010190613073565b5b50905061309c9190613126565b5090565b8280546130ac90614214565b90600052602060002090601f0160209004810192826130ce5760008555613115565b82601f106130e757803560ff1916838001178555613115565b82800160010185558215613115579182015b828111156131145782358255916020019190600101906130f9565b5b5090506131229190613126565b5090565b5b8082111561313f576000816000905550600101613127565b5090565b600061315661315184613f6f565b613f4a565b90508281526020810184848401111561316e57600080fd5b6131798482856141d2565b509392505050565b600061319461318f84613fa0565b613f4a565b9050828152602081018484840111156131ac57600080fd5b6131b78482856141d2565b509392505050565b6000813590506131ce81614a74565b92915050565b6000813590506131e381614a8b565b92915050565b6000813590506131f881614aa2565b92915050565b60008151905061320d81614aa2565b92915050565b600082601f83011261322457600080fd5b8135613234848260208601613143565b91505092915050565b60008083601f84011261324f57600080fd5b8235905067ffffffffffffffff81111561326857600080fd5b60208301915083600182028301111561328057600080fd5b9250929050565b600082601f83011261329857600080fd5b81356132a8848260208601613181565b91505092915050565b6000813590506132c081614ab9565b92915050565b6000813590506132d581614ad0565b92915050565b6000602082840312156132ed57600080fd5b60006132fb848285016131bf565b91505092915050565b6000806040838503121561331757600080fd5b6000613325858286016131bf565b9250506020613336858286016131bf565b9150509250929050565b60008060006060848603121561335557600080fd5b6000613363868287016131bf565b9350506020613374868287016131bf565b9250506040613385868287016132b1565b9150509250925092565b600080600080608085870312156133a557600080fd5b60006133b3878288016131bf565b94505060206133c4878288016131bf565b93505060406133d5878288016132b1565b925050606085013567ffffffffffffffff8111156133f257600080fd5b6133fe87828801613213565b91505092959194509250565b6000806040838503121561341d57600080fd5b600061342b858286016131bf565b925050602061343c858286016131d4565b9150509250929050565b6000806040838503121561345957600080fd5b6000613467858286016131bf565b9250506020613478858286016132b1565b9150509250929050565b6000806040838503121561349557600080fd5b60006134a3858286016131bf565b92505060206134b4858286016132c6565b9150509250929050565b6000602082840312156134d057600080fd5b60006134de848285016131e9565b91505092915050565b6000602082840312156134f957600080fd5b6000613507848285016131fe565b91505092915050565b6000806020838503121561352357600080fd5b600083013567ffffffffffffffff81111561353d57600080fd5b6135498582860161323d565b92509250509250929050565b60006020828403121561356757600080fd5b600082013567ffffffffffffffff81111561358157600080fd5b61358d84828501613287565b91505092915050565b6000602082840312156135a857600080fd5b60006135b6848285016132b1565b91505092915050565b600080604083850312156135d257600080fd5b60006135e0858286016132b1565b92505060206135f1858286016132b1565b9150509250929050565b61360481614146565b82525050565b61361381614134565b82525050565b61362281614158565b82525050565b600061363382613fd1565b61363d8185613fe7565b935061364d8185602086016141e1565b613656816143ad565b840191505092915050565b600061366c82613fdc565b6136768185614003565b93506136868185602086016141e1565b61368f816143ad565b840191505092915050565b60006136a582613fdc565b6136af8185614014565b93506136bf8185602086016141e1565b80840191505092915050565b60006136d8602b83614003565b91506136e3826143be565b604082019050919050565b60006136fb603283614003565b91506137068261440d565b604082019050919050565b600061371e602683614003565b91506137298261445c565b604082019050919050565b6000613741602583614003565b915061374c826144ab565b604082019050919050565b6000613764601c83614003565b915061376f826144fa565b602082019050919050565b6000613787601383614003565b915061379282614523565b602082019050919050565b60006137aa602483614003565b91506137b58261454c565b604082019050919050565b60006137cd601983614003565b91506137d88261459b565b602082019050919050565b60006137f0602083614003565b91506137fb826145c4565b602082019050919050565b6000613813602c83614003565b915061381e826145ed565b604082019050919050565b6000613836601f83614003565b91506138418261463c565b602082019050919050565b6000613859603883614003565b915061386482614665565b604082019050919050565b600061387c602a83614003565b9150613887826146b4565b604082019050919050565b600061389f602983614003565b91506138aa82614703565b604082019050919050565b60006138c2602083614003565b91506138cd82614752565b602082019050919050565b60006138e5601983614003565b91506138f08261477b565b602082019050919050565b6000613908602c83614003565b9150613913826147a4565b604082019050919050565b600061392b602083614003565b9150613936826147f3565b602082019050919050565b600061394e602f83614003565b91506139598261481c565b604082019050919050565b6000613971601b83614003565b915061397c8261486b565b602082019050919050565b6000613994602183614003565b915061399f82614894565b604082019050919050565b60006139b7600083613ff8565b91506139c2826148e3565b600082019050919050565b60006139da601083614003565b91506139e5826148e6565b602082019050919050565b60006139fd603183614003565b9150613a088261490f565b604082019050919050565b6000613a20602c83614003565b9150613a2b8261495e565b604082019050919050565b6000613a43602a83614003565b9150613a4e826149ad565b604082019050919050565b6000613a66602483614003565b9150613a71826149fc565b604082019050919050565b6000613a89601983614003565b9150613a9482614a4b565b602082019050919050565b613aa8816141b0565b82525050565b6000613aba828561369a565b9150613ac6828461369a565b91508190509392505050565b6000613add826139aa565b9150819050919050565b6000602082019050613afc600083018461360a565b92915050565b6000602082019050613b1760008301846135fb565b92915050565b6000608082019050613b32600083018761360a565b613b3f602083018661360a565b613b4c6040830185613a9f565b8181036060830152613b5e8184613628565b905095945050505050565b6000604082019050613b7e600083018561360a565b613b8b6020830184613a9f565b9392505050565b6000602082019050613ba76000830184613619565b92915050565b60006020820190508181036000830152613bc78184613661565b905092915050565b60006020820190508181036000830152613be8816136cb565b9050919050565b60006020820190508181036000830152613c08816136ee565b9050919050565b60006020820190508181036000830152613c2881613711565b9050919050565b60006020820190508181036000830152613c4881613734565b9050919050565b60006020820190508181036000830152613c6881613757565b9050919050565b60006020820190508181036000830152613c888161377a565b9050919050565b60006020820190508181036000830152613ca88161379d565b9050919050565b60006020820190508181036000830152613cc8816137c0565b9050919050565b60006020820190508181036000830152613ce8816137e3565b9050919050565b60006020820190508181036000830152613d0881613806565b9050919050565b60006020820190508181036000830152613d2881613829565b9050919050565b60006020820190508181036000830152613d488161384c565b9050919050565b60006020820190508181036000830152613d688161386f565b9050919050565b60006020820190508181036000830152613d8881613892565b9050919050565b60006020820190508181036000830152613da8816138b5565b9050919050565b60006020820190508181036000830152613dc8816138d8565b9050919050565b60006020820190508181036000830152613de8816138fb565b9050919050565b60006020820190508181036000830152613e088161391e565b9050919050565b60006020820190508181036000830152613e2881613941565b9050919050565b60006020820190508181036000830152613e4881613964565b9050919050565b60006020820190508181036000830152613e6881613987565b9050919050565b60006020820190508181036000830152613e88816139cd565b9050919050565b60006020820190508181036000830152613ea8816139f0565b9050919050565b60006020820190508181036000830152613ec881613a13565b9050919050565b60006020820190508181036000830152613ee881613a36565b9050919050565b60006020820190508181036000830152613f0881613a59565b9050919050565b60006020820190508181036000830152613f2881613a7c565b9050919050565b6000602082019050613f446000830184613a9f565b92915050565b6000613f54613f65565b9050613f608282614246565b919050565b6000604051905090565b600067ffffffffffffffff821115613f8a57613f8961437e565b5b613f93826143ad565b9050602081019050919050565b600067ffffffffffffffff821115613fbb57613fba61437e565b5b613fc4826143ad565b9050602081019050919050565b600081519050919050565b600081519050919050565b600082825260208201905092915050565b600081905092915050565b600082825260208201905092915050565b600081905092915050565b600061402a826141b0565b9150614035836141b0565b9250827fffffffffffffffffffffffffffffffffffffffffffffffffffffffffffffffff0382111561406a576140696142f1565b5b828201905092915050565b6000614080826141b0565b915061408b836141b0565b92508261409b5761409a614320565b5b828204905092915050565b60006140b1826141b0565b91506140bc836141b0565b9250817fffffffffffffffffffffffffffffffffffffffffffffffffffffffffffffffff04831182151516156140f5576140f46142f1565b5b828202905092915050565b600061410b826141b0565b9150614116836141b0565b925082821015614129576141286142f1565b5b828203905092915050565b600061413f82614190565b9050919050565b600061415182614190565b9050919050565b60008115159050919050565b60007fffffffff0000000000000000000000000000000000000000000000000000000082169050919050565b600073ffffffffffffffffffffffffffffffffffffffff82169050919050565b6000819050919050565b60006bffffffffffffffffffffffff82169050919050565b82818337600083830152505050565b60005b838110156141ff5780820151818401526020810190506141e4565b8381111561420e576000848401525b50505050565b6000600282049050600182168061422c57607f821691505b602082108114156142405761423f61434f565b5b50919050565b61424f826143ad565b810181811067ffffffffffffffff8211171561426e5761426d61437e565b5b80604052505050565b6000614282826141b0565b91507fffffffffffffffffffffffffffffffffffffffffffffffffffffffffffffffff8214156142b5576142b46142f1565b5b600182019050919050565b60006142cb826141b0565b91506142d6836141b0565b9250826142e6576142e5614320565b5b828206905092915050565b7f4e487b7100000000000000000000000000000000000000000000000000000000600052601160045260246000fd5b7f4e487b7100000000000000000000000000000000000000000000000000000000600052601260045260246000fd5b7f4e487b7100000000000000000000000000000000000000000000000000000000600052602260045260246000fd5b7f4e487b7100000000000000000000000000000000000000000000000000000000600052604160045260246000fd5b6000601f19601f8301169050919050565b7f455243373231456e756d657261626c653a206f776e657220696e646578206f7560008201527f74206f6620626f756e6473000000000000000000000000000000000000000000602082015250565b7f4552433732313a207472616e7366657220746f206e6f6e20455243373231526560008201527f63656976657220696d706c656d656e7465720000000000000000000000000000602082015250565b7f4f776e61626c653a206e6577206f776e657220697320746865207a65726f206160008201527f6464726573730000000000000000000000000000000000000000000000000000602082015250565b7f4552433732313a207472616e736665722066726f6d20696e636f72726563742060008201527f6f776e6572000000000000000000000000000000000000000000000000000000602082015250565b7f4552433732313a20746f6b656e20616c7265616479206d696e74656400000000600082015250565b7f70726f6a65637420697320736f6c64206f757400000000000000000000000000600082015250565b7f4552433732313a207472616e7366657220746f20746865207a65726f2061646460008201527f7265737300000000000000000000000000000000000000000000000000000000602082015250565b7f4552433732313a20617070726f766520746f2063616c6c657200000000000000600082015250565b7f43616e206f6e6c79206d696e742031204e46542070657220637573746f6d6572600082015250565b7f4552433732313a206f70657261746f7220717565727920666f72206e6f6e657860008201527f697374656e7420746f6b656e0000000000000000000000000000000000000000602082015250565b7f5468652070726f6a656374206973206e6f7420796574206c61756e6368656400600082015250565b7f4552433732313a20617070726f76652063616c6c6572206973206e6f74206f7760008201527f6e6572206e6f7220617070726f76656420666f7220616c6c0000000000000000602082015250565b7f4552433732313a2062616c616e636520717565727920666f7220746865207a6560008201527f726f206164647265737300000000000000000000000000000000000000000000602082015250565b7f4552433732313a206f776e657220717565727920666f72206e6f6e657869737460008201527f656e7420746f6b656e0000000000000000000000000000000000000000000000602082015250565b7f4552433732313a206d696e7420746f20746865207a65726f2061646472657373600082015250565b7f4e6f206574686572206c65667420746f20776974686472617700000000000000600082015250565b7f4552433732313a20617070726f76656420717565727920666f72206e6f6e657860008201527f697374656e7420746f6b656e0000000000000000000000000000000000000000602082015250565b7f4f776e61626c653a2063616c6c6572206973206e6f7420746865206f776e6572600082015250565b7f4552433732314d657461646174613a2055524920717565727920666f72206e6f60008201527f6e6578697374656e7420746f6b656e0000000000000000000000000000000000602082015250565b7f50726f6a65637420697320616c7265616479206c61756e636865640000000000600082015250565b7f4552433732313a20617070726f76616c20746f2063757272656e74206f776e6560008201527f7200000000000000000000000000000000000000000000000000000000000000602082015250565b50565b7f5472616e73666572206661696c65642e00000000000000000000000000000000600082015250565b7f4552433732313a207472616e736665722063616c6c6572206973206e6f74206f60008201527f776e6572206e6f7220617070726f766564000000000000000000000000000000602082015250565b7f455243373231456e756d657261626c653a20676c6f62616c20696e646578206f60008201527f7574206f6620626f756e64730000000000000000000000000000000000000000602082015250565b7f455243323938313a20726f79616c7479206665652077696c6c2065786365656460008201527f2073616c65507269636500000000000000000000000000000000000000000000602082015250565b7f4d7573742073656e6420616d6f756e7420657175616c20746f206d696e74207060008201527f7269636500000000000000000000000000000000000000000000000000000000602082015250565b7f455243323938313a20696e76616c696420726563656976657200000000000000600082015250565b614a7d81614134565b8114614a8857600080fd5b50565b614a9481614158565b8114614a9f57600080fd5b50565b614aab81614164565b8114614ab657600080fd5b50565b614ac2816141b0565b8114614acd57600080fd5b50565b614ad9816141ba565b8114614ae457600080fd5b5056fea26469706673582212208059553efa2da14a9c32af44130f6448abdc062e4f5594c46090eea2c2b1f51d64736f6c63430008040033",
  "linkReferences": {},
  "deployedLinkReferences": {}
}