{
  "_format": "hh-sol-artifact-1",
  "contractName": "EnglishAuction",
  "sourceName": "contracts/auction.sol",
  "abi": [
    {
      "inputs": [
        {
          "internalType": "address",
          "name": "_nft",
          "type": "address"
        },
        {
          "internalType": "uint256",
          "name": "_nftId",
          "type": "uint256"
        },
        {
          "internalType": "uint256",
          "name": "_startingBid",
          "type": "uint256"
        }
      ],
      "stateMutability": "nonpayable",
      "type": "constructor"
    },
    {
      "anonymous": false,
      "inputs": [
        {
          "indexed": true,
          "internalType": "address",
          "name": "sender",
          "type": "address"
        },
        {
          "indexed": false,
          "internalType": "uint256",
          "name": "amount",
          "type": "uint256"
        }
      ],
      "name": "Bid",
      "type": "event"
    },
    {
      "anonymous": false,
      "inputs": [
        {
          "indexed": false,
          "internalType": "address",
          "name": "winner",
          "type": "address"
        },
        {
          "indexed": false,
          "internalType": "uint256",
          "name": "amount",
          "type": "uint256"
        }
      ],
      "name": "End",
      "type": "event"
    },
    {
      "anonymous": false,
      "inputs": [],
      "name": "Start",
      "type": "event"
    },
    {
      "anonymous": false,
      "inputs": [
        {
          "indexed": true,
          "internalType": "address",
          "name": "bidder",
          "type": "address"
        },
        {
          "indexed": false,
          "internalType": "uint256",
          "name": "amount",
          "type": "uint256"
        }
      ],
      "name": "Withdraw",
      "type": "event"
    },
    {
      "inputs": [],
      "name": "bid",
      "outputs": [],
      "stateMutability": "payable",
      "type": "function"
    },
    {
      "inputs": [
        {
          "internalType": "address",
          "name": "",
          "type": "address"
        }
      ],
      "name": "bids",
      "outputs": [
        {
          "internalType": "uint256",
          "name": "",
          "type": "uint256"
        }
      ],
      "stateMutability": "view",
      "type": "function"
    },
    {
      "inputs": [],
      "name": "end",
      "outputs": [],
      "stateMutability": "nonpayable",
      "type": "function"
    },
    {
      "inputs": [],
      "name": "endAt",
      "outputs": [
        {
          "internalType": "uint256",
          "name": "",
          "type": "uint256"
        }
      ],
      "stateMutability": "view",
      "type": "function"
    },
    {
      "inputs": [],
      "name": "ended",
      "outputs": [
        {
          "internalType": "bool",
          "name": "",
          "type": "bool"
        }
      ],
      "stateMutability": "view",
      "type": "function"
    },
    {
      "inputs": [],
      "name": "highestBid",
      "outputs": [
        {
          "internalType": "uint256",
          "name": "",
          "type": "uint256"
        }
      ],
      "stateMutability": "view",
      "type": "function"
    },
    {
      "inputs": [],
      "name": "highestBidder",
      "outputs": [
        {
          "internalType": "address",
          "name": "",
          "type": "address"
        }
      ],
      "stateMutability": "view",
      "type": "function"
    },
    {
      "inputs": [],
      "name": "nft",
      "outputs": [
        {
          "internalType": "contract IERC721",
          "name": "",
          "type": "address"
        }
      ],
      "stateMutability": "view",
      "type": "function"
    },
    {
      "inputs": [],
      "name": "nftId",
      "outputs": [
        {
          "internalType": "uint256",
          "name": "",
          "type": "uint256"
        }
      ],
      "stateMutability": "view",
      "type": "function"
    },
    {
      "inputs": [],
      "name": "seller",
      "outputs": [
        {
          "internalType": "address payable",
          "name": "",
          "type": "address"
        }
      ],
      "stateMutability": "view",
      "type": "function"
    },
    {
      "inputs": [],
      "name": "start",
      "outputs": [],
      "stateMutability": "nonpayable",
      "type": "function"
    },
    {
      "inputs": [],
      "name": "started",
      "outputs": [
        {
          "internalType": "bool",
          "name": "",
          "type": "bool"
        }
      ],
      "stateMutability": "view",
      "type": "function"
    },
    {
      "inputs": [],
      "name": "withdraw",
      "outputs": [],
      "stateMutability": "nonpayable",
      "type": "function"
    }
  ],
  "bytecode": "0x60806040523480156200001157600080fd5b50604051620013d0380380620013d08339818101604052810190620000379190620000fd565b826000806101000a81548173ffffffffffffffffffffffffffffffffffffffff021916908373ffffffffffffffffffffffffffffffffffffffff1602179055508160018190555033600260006101000a81548173ffffffffffffffffffffffffffffffffffffffff021916908373ffffffffffffffffffffffffffffffffffffffff16021790555080600581905550505050620001c5565b600081519050620000e08162000191565b92915050565b600081519050620000f781620001ab565b92915050565b6000806000606084860312156200011357600080fd5b60006200012386828701620000cf565b93505060206200013686828701620000e6565b92505060406200014986828701620000e6565b9150509250925092565b6000620001608262000167565b9050919050565b600073ffffffffffffffffffffffffffffffffffffffff82169050919050565b6000819050919050565b6200019c8162000153565b8114620001a857600080fd5b50565b620001b68162000187565b8114620001c257600080fd5b50565b6111fb80620001d56000396000f3fe6080604052600436106100c25760003560e01c806362ea82db1161007f578063be9a655511610059578063be9a655514610227578063c6bc51821461023e578063d57bde7914610269578063efbe1c1c14610294576100c2565b806362ea82db146101945780637cc3ae8c146101d157806391f90157146101fc576100c2565b806308551a53146100c757806312fa6feb146100f25780631998aeef1461011d5780631f2698ab146101275780633ccfd60b1461015257806347ccca0214610169575b600080fd5b3480156100d357600080fd5b506100dc6102ab565b6040516100e99190610dab565b60405180910390f35b3480156100fe57600080fd5b506101076102d1565b6040516101149190610e5d565b60405180910390f35b6101256102e4565b005b34801561013357600080fd5b5061013c610524565b6040516101499190610e5d565b60405180910390f35b34801561015e57600080fd5b50610167610537565b005b34801561017557600080fd5b5061017e610658565b60405161018b9190610e78565b60405180910390f35b3480156101a057600080fd5b506101bb60048036038101906101b69190610c3b565b61067c565b6040516101c89190610f53565b60405180910390f35b3480156101dd57600080fd5b506101e6610694565b6040516101f39190610f53565b60405180910390f35b34801561020857600080fd5b5061021161069a565b60405161021e9190610d90565b60405180910390f35b34801561023357600080fd5b5061023c6106c0565b005b34801561024a57600080fd5b5061025361088f565b6040516102609190610f53565b60405180910390f35b34801561027557600080fd5b5061027e610895565b60405161028b9190610f53565b60405180910390f35b3480156102a057600080fd5b506102a961089b565b005b600260009054906101000a900473ffffffffffffffffffffffffffffffffffffffff1681565b600460019054906101000a900460ff1681565b600460009054906101000a900460ff16610333576040517f08c379a000000000000000000000000000000000000000000000000000000000815260040161032a90610ed3565b60405180910390fd5b6003544210610377576040517f08c379a000000000000000000000000000000000000000000000000000000000815260040161036e90610f13565b60405180910390fd5b60055434116103bb576040517f08c379a00000000000000000000000000000000000000000000000000000000081526004016103b290610e93565b60405180910390fd5b600073ffffffffffffffffffffffffffffffffffffffff16600460029054906101000a900473ffffffffffffffffffffffffffffffffffffffff1673ffffffffffffffffffffffffffffffffffffffff161461048c5760055460066000600460029054906101000a900473ffffffffffffffffffffffffffffffffffffffff1673ffffffffffffffffffffffffffffffffffffffff1673ffffffffffffffffffffffffffffffffffffffff16815260200190815260200160002060008282546104849190610f7f565b925050819055505b33600460026101000a81548173ffffffffffffffffffffffffffffffffffffffff021916908373ffffffffffffffffffffffffffffffffffffffff160217905550346005819055503373ffffffffffffffffffffffffffffffffffffffff167fe684a55f31b79eca403df938249029212a5925ec6be8012e099b45bc1019e5d23460405161051a9190610f53565b60405180910390a2565b600460009054906101000a900460ff1681565b6000600660003373ffffffffffffffffffffffffffffffffffffffff1673ffffffffffffffffffffffffffffffffffffffff1681526020019081526020016000205490506000600660003373ffffffffffffffffffffffffffffffffffffffff1673ffffffffffffffffffffffffffffffffffffffff168152602001908152602001600020819055503373ffffffffffffffffffffffffffffffffffffffff166108fc829081150290604051600060405180830381858888f19350505050158015610606573d6000803e3d6000fd5b503373ffffffffffffffffffffffffffffffffffffffff167f884edad9ce6fa2440d8a54cc123490eb96d2768479d49ff9c7366125a94243648260405161064d9190610f53565b60405180910390a250565b60008054906101000a900473ffffffffffffffffffffffffffffffffffffffff1681565b60066020528060005260406000206000915090505481565b60035481565b600460029054906101000a900473ffffffffffffffffffffffffffffffffffffffff1681565b600460009054906101000a900460ff1615610710576040517f08c379a000000000000000000000000000000000000000000000000000000000815260040161070790610eb3565b60405180910390fd5b600260009054906101000a900473ffffffffffffffffffffffffffffffffffffffff1673ffffffffffffffffffffffffffffffffffffffff163373ffffffffffffffffffffffffffffffffffffffff16146107a0576040517f08c379a000000000000000000000000000000000000000000000000000000000815260040161079790610ef3565b60405180910390fd5b60008054906101000a900473ffffffffffffffffffffffffffffffffffffffff1673ffffffffffffffffffffffffffffffffffffffff166323b872dd33306001546040518463ffffffff1660e01b81526004016107ff93929190610dfd565b600060405180830381600087803b15801561081957600080fd5b505af115801561082d573d6000803e3d6000fd5b505050506001600460006101000a81548160ff02191690831515021790555062093a804261085b9190610f7f565b6003819055507f1b55ba3aa851a46be3b365aee5b5c140edd620d578922f3e8466d2cbd96f954b60405160405180910390a1565b60015481565b60055481565b600460009054906101000a900460ff166108ea576040517f08c379a00000000000000000000000000000000000000000000000000000000081526004016108e190610ed3565b60405180910390fd5b60035442101561092f576040517f08c379a000000000000000000000000000000000000000000000000000000000815260040161092690610f33565b60405180910390fd5b600460019054906101000a900460ff161561097f576040517f08c379a000000000000000000000000000000000000000000000000000000000815260040161097690610f13565b60405180910390fd5b6001600460016101000a81548160ff021916908315150217905550600073ffffffffffffffffffffffffffffffffffffffff16600460029054906101000a900473ffffffffffffffffffffffffffffffffffffffff1673ffffffffffffffffffffffffffffffffffffffff1614610b135760008054906101000a900473ffffffffffffffffffffffffffffffffffffffff1673ffffffffffffffffffffffffffffffffffffffff166342842e0e30600460029054906101000a900473ffffffffffffffffffffffffffffffffffffffff166001546040518463ffffffff1660e01b8152600401610a7193929190610dfd565b600060405180830381600087803b158015610a8b57600080fd5b505af1158015610a9f573d6000803e3d6000fd5b50505050600260009054906101000a900473ffffffffffffffffffffffffffffffffffffffff1673ffffffffffffffffffffffffffffffffffffffff166108fc6005549081150290604051600060405180830381858888f19350505050158015610b0d573d6000803e3d6000fd5b50610bc7565b60008054906101000a900473ffffffffffffffffffffffffffffffffffffffff1673ffffffffffffffffffffffffffffffffffffffff166342842e0e30600260009054906101000a900473ffffffffffffffffffffffffffffffffffffffff166001546040518463ffffffff1660e01b8152600401610b9493929190610dc6565b600060405180830381600087803b158015610bae57600080fd5b505af1158015610bc2573d6000803e3d6000fd5b505050505b7f7d7570b046e5ead3a4f3fbc9fa2445113625a1e79823776146316bafed6b8cc5600460029054906101000a900473ffffffffffffffffffffffffffffffffffffffff16600554604051610c1c929190610e34565b60405180910390a1565b600081359050610c35816111ae565b92915050565b600060208284031215610c4d57600080fd5b6000610c5b84828501610c26565b91505092915050565b610c6d8161102f565b82525050565b610c7c81610fe7565b82525050565b610c8b81610fd5565b82525050565b610c9a81610ff9565b82525050565b610ca981611041565b82525050565b6000610cbc600f83610f6e565b9150610cc7826110b8565b602082019050919050565b6000610cdf600783610f6e565b9150610cea826110e1565b602082019050919050565b6000610d02600b83610f6e565b9150610d0d8261110a565b602082019050919050565b6000610d25600a83610f6e565b9150610d3082611133565b602082019050919050565b6000610d48600583610f6e565b9150610d538261115c565b602082019050919050565b6000610d6b600983610f6e565b9150610d7682611185565b602082019050919050565b610d8a81611025565b82525050565b6000602082019050610da56000830184610c82565b92915050565b6000602082019050610dc06000830184610c73565b92915050565b6000606082019050610ddb6000830186610c82565b610de86020830185610c64565b610df56040830184610d81565b949350505050565b6000606082019050610e126000830186610c82565b610e1f6020830185610c82565b610e2c6040830184610d81565b949350505050565b6000604082019050610e496000830185610c82565b610e566020830184610d81565b9392505050565b6000602082019050610e726000830184610c91565b92915050565b6000602082019050610e8d6000830184610ca0565b92915050565b60006020820190508181036000830152610eac81610caf565b9050919050565b60006020820190508181036000830152610ecc81610cd2565b9050919050565b60006020820190508181036000830152610eec81610cf5565b9050919050565b60006020820190508181036000830152610f0c81610d18565b9050919050565b60006020820190508181036000830152610f2c81610d3b565b9050919050565b60006020820190508181036000830152610f4c81610d5e565b9050919050565b6000602082019050610f686000830184610d81565b92915050565b600082825260208201905092915050565b6000610f8a82611025565b9150610f9583611025565b9250827fffffffffffffffffffffffffffffffffffffffffffffffffffffffffffffffff03821115610fca57610fc9611089565b5b828201905092915050565b6000610fe082611005565b9050919050565b6000610ff282611005565b9050919050565b60008115159050919050565b600073ffffffffffffffffffffffffffffffffffffffff82169050919050565b6000819050919050565b600061103a82611065565b9050919050565b600061104c82611053565b9050919050565b600061105e82611005565b9050919050565b600061107082611077565b9050919050565b600061108282611005565b9050919050565b7f4e487b7100000000000000000000000000000000000000000000000000000000600052601160045260246000fd5b7f76616c7565203c20686967686573740000000000000000000000000000000000600082015250565b7f7374617274656400000000000000000000000000000000000000000000000000600082015250565b7f6e6f742073746172746564000000000000000000000000000000000000000000600082015250565b7f6e6f742073656c6c657200000000000000000000000000000000000000000000600082015250565b7f656e646564000000000000000000000000000000000000000000000000000000600082015250565b7f6e6f7420656e6465640000000000000000000000000000000000000000000000600082015250565b6111b781610fd5565b81146111c257600080fd5b5056fea26469706673582212201f5d06cdf3a4e20e5122f29fd5cc6f8fe88bf424f8964c72a41ff4fd529d417a64736f6c63430008040033",
  "linkReferences": {},
  "deployedLinkReferences": {}
}